{
    "contractName": "IbAlluo",
    "abi": [
        {
            "inputs": [],
            "stateMutability": "nonpayable",
            "type": "constructor"
        },
        {
            "anonymous": false,
            "inputs": [
                {
                    "indexed": false,
                    "internalType": "address",
                    "name": "previousAdmin",
                    "type": "address"
                },
                {
                    "indexed": false,
                    "internalType": "address",
                    "name": "newAdmin",
                    "type": "address"
                }
            ],
            "name": "AdminChanged",
            "type": "event"
        },
        {
            "anonymous": false,
            "inputs": [
                {
                    "indexed": true,
                    "internalType": "address",
                    "name": "owner",
                    "type": "address"
                },
                {
                    "indexed": true,
                    "internalType": "address",
                    "name": "spender",
                    "type": "address"
                },
                {
                    "indexed": false,
                    "internalType": "uint256",
                    "name": "value",
                    "type": "uint256"
                }
            ],
            "name": "Approval",
            "type": "event"
        },
        {
            "anonymous": false,
            "inputs": [
                {
                    "indexed": true,
                    "internalType": "address",
                    "name": "beacon",
                    "type": "address"
                }
            ],
            "name": "BeaconUpgraded",
            "type": "event"
        },
        {
            "anonymous": false,
            "inputs": [
                {
                    "indexed": true,
                    "internalType": "address",
                    "name": "user",
                    "type": "address"
                },
                {
                    "indexed": false,
                    "internalType": "uint256",
                    "name": "amount",
                    "type": "uint256"
                }
            ],
            "name": "BurnedForWithdraw",
            "type": "event"
        },
        {
            "anonymous": false,
            "inputs": [
                {
                    "indexed": false,
                    "internalType": "address",
                    "name": "token",
                    "type": "address"
                },
                {
                    "indexed": false,
                    "internalType": "bool",
                    "name": "status",
                    "type": "bool"
                }
            ],
            "name": "DepositTokenStatusChanged",
            "type": "event"
        },
        {
            "anonymous": false,
            "inputs": [
                {
                    "indexed": true,
                    "internalType": "address",
                    "name": "user",
                    "type": "address"
                },
                {
                    "indexed": false,
                    "internalType": "address",
                    "name": "token",
                    "type": "address"
                },
                {
                    "indexed": false,
                    "internalType": "uint256",
                    "name": "amount",
                    "type": "uint256"
                }
            ],
            "name": "Deposited",
            "type": "event"
        },
        {
            "anonymous": false,
            "inputs": [
                {
                    "indexed": false,
                    "internalType": "uint8",
                    "name": "version",
                    "type": "uint8"
                }
            ],
            "name": "Initialized",
            "type": "event"
        },
        {
            "anonymous": false,
            "inputs": [
                {
                    "indexed": false,
                    "internalType": "uint256",
                    "name": "oldYearInterest",
                    "type": "uint256"
                },
                {
                    "indexed": false,
                    "internalType": "uint256",
                    "name": "newYearInterest",
                    "type": "uint256"
                },
                {
                    "indexed": false,
                    "internalType": "uint256",
                    "name": "oldInterestPerSecond",
                    "type": "uint256"
                },
                {
                    "indexed": false,
                    "internalType": "uint256",
                    "name": "newInterestPerSecond",
                    "type": "uint256"
                }
            ],
            "name": "InterestChanged",
            "type": "event"
        },
        {
            "anonymous": false,
            "inputs": [
                {
                    "indexed": false,
                    "internalType": "address",
                    "name": "oldBuffer",
                    "type": "address"
                },
                {
                    "indexed": false,
                    "internalType": "address",
                    "name": "newBuffer",
                    "type": "address"
                }
            ],
            "name": "NewBufferSet",
            "type": "event"
        },
        {
            "anonymous": false,
            "inputs": [
                {
                    "indexed": false,
                    "internalType": "address",
                    "name": "account",
                    "type": "address"
                }
            ],
            "name": "Paused",
            "type": "event"
        },
        {
            "anonymous": false,
            "inputs": [
                {
                    "indexed": true,
                    "internalType": "bytes32",
                    "name": "role",
                    "type": "bytes32"
                },
                {
                    "indexed": true,
                    "internalType": "bytes32",
                    "name": "previousAdminRole",
                    "type": "bytes32"
                },
                {
                    "indexed": true,
                    "internalType": "bytes32",
                    "name": "newAdminRole",
                    "type": "bytes32"
                }
            ],
            "name": "RoleAdminChanged",
            "type": "event"
        },
        {
            "anonymous": false,
            "inputs": [
                {
                    "indexed": true,
                    "internalType": "bytes32",
                    "name": "role",
                    "type": "bytes32"
                },
                {
                    "indexed": true,
                    "internalType": "address",
                    "name": "account",
                    "type": "address"
                },
                {
                    "indexed": true,
                    "internalType": "address",
                    "name": "sender",
                    "type": "address"
                }
            ],
            "name": "RoleGranted",
            "type": "event"
        },
        {
            "anonymous": false,
            "inputs": [
                {
                    "indexed": true,
                    "internalType": "bytes32",
                    "name": "role",
                    "type": "bytes32"
                },
                {
                    "indexed": true,
                    "internalType": "address",
                    "name": "account",
                    "type": "address"
                },
                {
                    "indexed": true,
                    "internalType": "address",
                    "name": "sender",
                    "type": "address"
                }
            ],
            "name": "RoleRevoked",
            "type": "event"
        },
        {
            "anonymous": false,
            "inputs": [
                {
                    "indexed": true,
                    "internalType": "address",
                    "name": "from",
                    "type": "address"
                },
                {
                    "indexed": true,
                    "internalType": "address",
                    "name": "to",
                    "type": "address"
                },
                {
                    "indexed": false,
                    "internalType": "uint256",
                    "name": "value",
                    "type": "uint256"
                }
            ],
            "name": "Transfer",
            "type": "event"
        },
        {
            "anonymous": false,
            "inputs": [
                {
                    "indexed": true,
                    "internalType": "address",
                    "name": "from",
                    "type": "address"
                },
                {
                    "indexed": true,
                    "internalType": "address",
                    "name": "to",
                    "type": "address"
                },
                {
                    "indexed": false,
                    "internalType": "uint256",
                    "name": "tokenAmount",
                    "type": "uint256"
                },
                {
                    "indexed": false,
                    "internalType": "uint256",
                    "name": "assetValue",
                    "type": "uint256"
                },
                {
                    "indexed": false,
                    "internalType": "uint256",
                    "name": "growingRatio",
                    "type": "uint256"
                }
            ],
            "name": "TransferAssetValue",
            "type": "event"
        },
        {
            "anonymous": false,
            "inputs": [
                {
                    "indexed": false,
                    "internalType": "address",
                    "name": "account",
                    "type": "address"
                }
            ],
            "name": "Unpaused",
            "type": "event"
        },
        {
            "anonymous": false,
            "inputs": [
                {
                    "indexed": false,
                    "internalType": "uint256",
                    "name": "oldValue",
                    "type": "uint256"
                },
                {
                    "indexed": false,
                    "internalType": "uint256",
                    "name": "newValue",
                    "type": "uint256"
                }
            ],
            "name": "UpdateTimeLimitSet",
            "type": "event"
        },
        {
            "anonymous": false,
            "inputs": [
                {
                    "indexed": true,
                    "internalType": "address",
                    "name": "implementation",
                    "type": "address"
                }
            ],
            "name": "Upgraded",
            "type": "event"
        },
        {
            "inputs": [],
            "name": "DEFAULT_ADMIN_ROLE",
            "outputs": [
                {
                    "internalType": "bytes32",
                    "name": "",
                    "type": "bytes32"
                }
            ],
            "stateMutability": "view",
            "type": "function"
        },
        {
            "inputs": [],
            "name": "UPGRADER_ROLE",
            "outputs": [
                {
                    "internalType": "bytes32",
                    "name": "",
                    "type": "bytes32"
                }
            ],
            "stateMutability": "view",
            "type": "function"
        },
        {
            "inputs": [
                {
                    "internalType": "address",
                    "name": "owner",
                    "type": "address"
                },
                {
                    "internalType": "address",
                    "name": "spender",
                    "type": "address"
                }
            ],
            "name": "allowance",
            "outputs": [
                {
                    "internalType": "uint256",
                    "name": "",
                    "type": "uint256"
                }
            ],
            "stateMutability": "view",
            "type": "function"
        },
        {
            "inputs": [],
            "name": "annualInterest",
            "outputs": [
                {
                    "internalType": "uint256",
                    "name": "",
                    "type": "uint256"
                }
            ],
            "stateMutability": "view",
            "type": "function"
        },
        {
            "inputs": [
                {
                    "internalType": "address",
                    "name": "spender",
                    "type": "address"
                },
                {
                    "internalType": "uint256",
                    "name": "amount",
                    "type": "uint256"
                }
            ],
            "name": "approve",
            "outputs": [
                {
                    "internalType": "bool",
                    "name": "",
                    "type": "bool"
                }
            ],
            "stateMutability": "nonpayable",
            "type": "function"
        },
        {
            "inputs": [
                {
                    "internalType": "address",
                    "name": "spender",
                    "type": "address"
                },
                {
                    "internalType": "uint256",
                    "name": "amount",
                    "type": "uint256"
                }
            ],
            "name": "approveAssetValue",
            "outputs": [
                {
                    "internalType": "bool",
                    "name": "",
                    "type": "bool"
                }
            ],
            "stateMutability": "nonpayable",
            "type": "function"
        },
        {
            "inputs": [
                {
                    "internalType": "address",
                    "name": "account",
                    "type": "address"
                }
            ],
            "name": "balanceOf",
            "outputs": [
                {
                    "internalType": "uint256",
                    "name": "",
                    "type": "uint256"
                }
            ],
            "stateMutability": "view",
            "type": "function"
        },
        {
            "inputs": [
                {
                    "internalType": "address",
                    "name": "account",
                    "type": "address"
                },
                {
                    "internalType": "uint256",
                    "name": "amount",
                    "type": "uint256"
                }
            ],
            "name": "burn",
            "outputs": [],
            "stateMutability": "nonpayable",
            "type": "function"
        },
        {
            "inputs": [
                {
                    "internalType": "address",
                    "name": "_token",
                    "type": "address"
                },
                {
                    "internalType": "bool",
                    "name": "_status",
                    "type": "bool"
                }
            ],
            "name": "changeTokenStatus",
            "outputs": [],
            "stateMutability": "nonpayable",
            "type": "function"
        },
        {
            "inputs": [
                {
                    "internalType": "bool",
                    "name": "_status",
                    "type": "bool"
                }
            ],
            "name": "changeUpgradeStatus",
            "outputs": [],
            "stateMutability": "nonpayable",
            "type": "function"
        },
        {
            "inputs": [],
            "name": "decimals",
            "outputs": [
                {
                    "internalType": "uint8",
                    "name": "",
                    "type": "uint8"
                }
            ],
            "stateMutability": "view",
            "type": "function"
        },
        {
            "inputs": [
                {
                    "internalType": "address",
                    "name": "spender",
                    "type": "address"
                },
                {
                    "internalType": "uint256",
                    "name": "subtractedValue",
                    "type": "uint256"
                }
            ],
            "name": "decreaseAllowance",
            "outputs": [
                {
                    "internalType": "bool",
                    "name": "",
                    "type": "bool"
                }
            ],
            "stateMutability": "nonpayable",
            "type": "function"
        },
        {
            "inputs": [
                {
                    "internalType": "address",
                    "name": "_token",
                    "type": "address"
                },
                {
                    "internalType": "uint256",
                    "name": "_amount",
                    "type": "uint256"
                }
            ],
            "name": "deposit",
            "outputs": [],
            "stateMutability": "nonpayable",
            "type": "function"
        },
        {
            "inputs": [],
            "name": "exchangeAddress",
            "outputs": [
                {
                    "internalType": "address",
                    "name": "",
                    "type": "address"
                }
            ],
            "stateMutability": "view",
            "type": "function"
        },
        {
            "inputs": [
                {
                    "internalType": "address",
                    "name": "_address",
                    "type": "address"
                }
            ],
            "name": "getBalance",
            "outputs": [
                {
                    "internalType": "uint256",
                    "name": "",
                    "type": "uint256"
                }
            ],
            "stateMutability": "view",
            "type": "function"
        },
        {
            "inputs": [
                {
                    "internalType": "address",
                    "name": "_address",
                    "type": "address"
                }
            ],
            "name": "getBalanceForTransfer",
            "outputs": [
                {
                    "internalType": "uint256",
                    "name": "",
                    "type": "uint256"
                }
            ],
            "stateMutability": "view",
            "type": "function"
        },
        {
            "inputs": [],
            "name": "getListSupportedTokens",
            "outputs": [
                {
                    "internalType": "address[]",
                    "name": "",
                    "type": "address[]"
                }
            ],
            "stateMutability": "view",
            "type": "function"
        },
        {
            "inputs": [
                {
                    "internalType": "bytes32",
                    "name": "role",
                    "type": "bytes32"
                }
            ],
            "name": "getRoleAdmin",
            "outputs": [
                {
                    "internalType": "bytes32",
                    "name": "",
                    "type": "bytes32"
                }
            ],
            "stateMutability": "view",
            "type": "function"
        },
        {
            "inputs": [
                {
                    "internalType": "bytes32",
                    "name": "role",
                    "type": "bytes32"
                },
                {
                    "internalType": "address",
                    "name": "account",
                    "type": "address"
                }
            ],
            "name": "grantRole",
            "outputs": [],
            "stateMutability": "nonpayable",
            "type": "function"
        },
        {
            "inputs": [],
            "name": "growingRatio",
            "outputs": [
                {
                    "internalType": "uint256",
                    "name": "",
                    "type": "uint256"
                }
            ],
            "stateMutability": "view",
            "type": "function"
        },
        {
            "inputs": [
                {
                    "internalType": "bytes32",
                    "name": "role",
                    "type": "bytes32"
                },
                {
                    "internalType": "address",
                    "name": "account",
                    "type": "address"
                }
            ],
            "name": "hasRole",
            "outputs": [
                {
                    "internalType": "bool",
                    "name": "",
                    "type": "bool"
                }
            ],
            "stateMutability": "view",
            "type": "function"
        },
        {
            "inputs": [
                {
                    "internalType": "address",
                    "name": "spender",
                    "type": "address"
                },
                {
                    "internalType": "uint256",
                    "name": "addedValue",
                    "type": "uint256"
                }
            ],
            "name": "increaseAllowance",
            "outputs": [
                {
                    "internalType": "bool",
                    "name": "",
                    "type": "bool"
                }
            ],
            "stateMutability": "nonpayable",
            "type": "function"
        },
        {
            "inputs": [
                {
                    "internalType": "string",
                    "name": "_name",
                    "type": "string"
                },
                {
                    "internalType": "string",
                    "name": "_symbol",
                    "type": "string"
                },
                {
                    "internalType": "address",
                    "name": "_multiSigWallet",
                    "type": "address"
                },
                {
                    "internalType": "address",
                    "name": "_buffer",
                    "type": "address"
                },
                {
                    "internalType": "address[]",
                    "name": "_supportedTokens",
                    "type": "address[]"
                },
                {
                    "internalType": "uint256",
                    "name": "_interestPerSecond",
                    "type": "uint256"
                },
                {
                    "internalType": "uint256",
                    "name": "_annualInterest",
                    "type": "uint256"
                },
                {
                    "internalType": "address",
                    "name": "_trustedForwarder",
                    "type": "address"
                }
            ],
            "name": "initialize",
            "outputs": [],
            "stateMutability": "nonpayable",
            "type": "function"
        },
        {
            "inputs": [],
            "name": "interestPerSecond",
            "outputs": [
                {
                    "internalType": "uint256",
                    "name": "",
                    "type": "uint256"
                }
            ],
            "stateMutability": "view",
            "type": "function"
        },
        {
            "inputs": [
                {
                    "internalType": "address",
                    "name": "forwarder",
                    "type": "address"
                }
            ],
            "name": "isTrustedForwarder",
            "outputs": [
                {
                    "internalType": "bool",
                    "name": "",
                    "type": "bool"
                }
            ],
            "stateMutability": "view",
            "type": "function"
        },
        {
            "inputs": [],
            "name": "lastInterestCompound",
            "outputs": [
                {
                    "internalType": "uint256",
                    "name": "",
                    "type": "uint256"
                }
            ],
            "stateMutability": "view",
            "type": "function"
        },
        {
            "inputs": [],
            "name": "liquidityBuffer",
            "outputs": [
                {
                    "internalType": "address",
                    "name": "",
                    "type": "address"
                }
            ],
            "stateMutability": "view",
            "type": "function"
        },
        {
            "inputs": [
                {
                    "internalType": "address",
                    "name": "_oldContract",
                    "type": "address"
                },
                {
                    "internalType": "address[]",
                    "name": "_users",
                    "type": "address[]"
                }
            ],
            "name": "migrateStep1",
            "outputs": [],
            "stateMutability": "nonpayable",
            "type": "function"
        },
        {
            "inputs": [],
            "name": "migrateStep2",
            "outputs": [],
            "stateMutability": "nonpayable",
            "type": "function"
        },
        {
            "inputs": [
                {
                    "internalType": "address",
                    "name": "account",
                    "type": "address"
                },
                {
                    "internalType": "uint256",
                    "name": "amount",
                    "type": "uint256"
                }
            ],
            "name": "mint",
            "outputs": [],
            "stateMutability": "nonpayable",
            "type": "function"
        },
        {
            "inputs": [],
            "name": "name",
            "outputs": [
                {
                    "internalType": "string",
                    "name": "",
                    "type": "string"
                }
            ],
            "stateMutability": "view",
            "type": "function"
        },
        {
            "inputs": [],
            "name": "pause",
            "outputs": [],
            "stateMutability": "nonpayable",
            "type": "function"
        },
        {
            "inputs": [],
            "name": "paused",
            "outputs": [
                {
                    "internalType": "bool",
                    "name": "",
                    "type": "bool"
                }
            ],
            "stateMutability": "view",
            "type": "function"
        },
        {
            "inputs": [],
            "name": "proxiableUUID",
            "outputs": [
                {
                    "internalType": "bytes32",
                    "name": "",
                    "type": "bytes32"
                }
            ],
            "stateMutability": "view",
            "type": "function"
        },
        {
            "inputs": [
                {
                    "internalType": "bytes32",
                    "name": "role",
                    "type": "bytes32"
                },
                {
                    "internalType": "address",
                    "name": "account",
                    "type": "address"
                }
            ],
            "name": "renounceRole",
            "outputs": [],
            "stateMutability": "nonpayable",
            "type": "function"
        },
        {
            "inputs": [
                {
                    "internalType": "bytes32",
                    "name": "role",
                    "type": "bytes32"
                },
                {
                    "internalType": "address",
                    "name": "account",
                    "type": "address"
                }
            ],
            "name": "revokeRole",
            "outputs": [],
            "stateMutability": "nonpayable",
            "type": "function"
        },
        {
            "inputs": [
                {
                    "internalType": "address",
                    "name": "_exchangeAddress",
                    "type": "address"
                }
            ],
            "name": "setExchangeAddress",
            "outputs": [],
            "stateMutability": "nonpayable",
            "type": "function"
        },
        {
            "inputs": [
                {
                    "internalType": "uint256",
                    "name": "_newAnnualInterest",
                    "type": "uint256"
                },
                {
                    "internalType": "uint256",
                    "name": "_newInterestPerSecond",
                    "type": "uint256"
                }
            ],
            "name": "setInterest",
            "outputs": [],
            "stateMutability": "nonpayable",
            "type": "function"
        },
        {
            "inputs": [
                {
                    "internalType": "address",
                    "name": "newBuffer",
                    "type": "address"
                }
            ],
            "name": "setLiquidityBuffer",
            "outputs": [],
            "stateMutability": "nonpayable",
            "type": "function"
        },
        {
            "inputs": [
                {
                    "internalType": "address",
                    "name": "newTrustedForwarder",
                    "type": "address"
                }
            ],
            "name": "setTrustedForwarder",
            "outputs": [],
            "stateMutability": "nonpayable",
            "type": "function"
        },
        {
            "inputs": [
                {
                    "internalType": "uint256",
                    "name": "_newLimit",
                    "type": "uint256"
                }
            ],
            "name": "setUpdateTimeLimit",
            "outputs": [],
            "stateMutability": "nonpayable",
            "type": "function"
        },
        {
            "inputs": [
                {
                    "internalType": "bytes4",
                    "name": "interfaceId",
                    "type": "bytes4"
                }
            ],
            "name": "supportsInterface",
            "outputs": [
                {
                    "internalType": "bool",
                    "name": "",
                    "type": "bool"
                }
            ],
            "stateMutability": "view",
            "type": "function"
        },
        {
            "inputs": [],
            "name": "symbol",
            "outputs": [
                {
                    "internalType": "string",
                    "name": "",
                    "type": "string"
                }
            ],
            "stateMutability": "view",
            "type": "function"
        },
        {
            "inputs": [],
            "name": "totalAssetSupply",
            "outputs": [
                {
                    "internalType": "uint256",
                    "name": "",
                    "type": "uint256"
                }
            ],
            "stateMutability": "view",
            "type": "function"
        },
        {
            "inputs": [],
            "name": "totalSupply",
            "outputs": [
                {
                    "internalType": "uint256",
                    "name": "",
                    "type": "uint256"
                }
            ],
            "stateMutability": "view",
            "type": "function"
        },
        {
            "inputs": [
                {
                    "internalType": "address",
                    "name": "to",
                    "type": "address"
                },
                {
                    "internalType": "uint256",
                    "name": "amount",
                    "type": "uint256"
                }
            ],
            "name": "transfer",
            "outputs": [
                {
                    "internalType": "bool",
                    "name": "",
                    "type": "bool"
                }
            ],
            "stateMutability": "nonpayable",
            "type": "function"
        },
        {
            "inputs": [
                {
                    "internalType": "address",
                    "name": "to",
                    "type": "address"
                },
                {
                    "internalType": "uint256",
                    "name": "amount",
                    "type": "uint256"
                }
            ],
            "name": "transferAssetValue",
            "outputs": [
                {
                    "internalType": "bool",
                    "name": "",
                    "type": "bool"
                }
            ],
            "stateMutability": "nonpayable",
            "type": "function"
        },
        {
            "inputs": [
                {
                    "internalType": "address",
                    "name": "from",
                    "type": "address"
                },
                {
                    "internalType": "address",
                    "name": "to",
                    "type": "address"
                },
                {
                    "internalType": "uint256",
                    "name": "amount",
                    "type": "uint256"
                }
            ],
            "name": "transferFrom",
            "outputs": [
                {
                    "internalType": "bool",
                    "name": "",
                    "type": "bool"
                }
            ],
            "stateMutability": "nonpayable",
            "type": "function"
        },
        {
            "inputs": [
                {
                    "internalType": "address",
                    "name": "from",
                    "type": "address"
                },
                {
                    "internalType": "address",
                    "name": "to",
                    "type": "address"
                },
                {
                    "internalType": "uint256",
                    "name": "amount",
                    "type": "uint256"
                }
            ],
            "name": "transferFromAssetValue",
            "outputs": [
                {
                    "internalType": "bool",
                    "name": "",
                    "type": "bool"
                }
            ],
            "stateMutability": "nonpayable",
            "type": "function"
        },
        {
            "inputs": [],
            "name": "trustedForwarder",
            "outputs": [
                {
                    "internalType": "address",
                    "name": "",
                    "type": "address"
                }
            ],
            "stateMutability": "view",
            "type": "function"
        },
        {
            "inputs": [],
            "name": "unpause",
            "outputs": [],
            "stateMutability": "nonpayable",
            "type": "function"
        },
        {
            "inputs": [],
            "name": "updateRatio",
            "outputs": [],
            "stateMutability": "nonpayable",
            "type": "function"
        },
        {
            "inputs": [],
            "name": "updateTimeLimit",
            "outputs": [
                {
                    "internalType": "uint256",
                    "name": "",
                    "type": "uint256"
                }
            ],
            "stateMutability": "view",
            "type": "function"
        },
        {
            "inputs": [],
            "name": "upgradeStatus",
            "outputs": [
                {
                    "internalType": "bool",
                    "name": "",
                    "type": "bool"
                }
            ],
            "stateMutability": "view",
            "type": "function"
        },
        {
            "inputs": [
                {
                    "internalType": "address",
                    "name": "newImplementation",
                    "type": "address"
                }
            ],
            "name": "upgradeTo",
            "outputs": [],
            "stateMutability": "nonpayable",
            "type": "function"
        },
        {
            "inputs": [
                {
                    "internalType": "address",
                    "name": "newImplementation",
                    "type": "address"
                },
                {
                    "internalType": "bytes",
                    "name": "data",
                    "type": "bytes"
                }
            ],
            "name": "upgradeToAndCall",
            "outputs": [],
            "stateMutability": "payable",
            "type": "function"
        },
        {
            "inputs": [
                {
                    "internalType": "address",
                    "name": "_targetToken",
                    "type": "address"
                },
                {
                    "internalType": "uint256",
                    "name": "_amount",
                    "type": "uint256"
                }
            ],
            "name": "withdraw",
            "outputs": [],
            "stateMutability": "nonpayable",
            "type": "function"
        },
        {
            "inputs": [
                {
                    "internalType": "address",
                    "name": "_recipient",
                    "type": "address"
                },
                {
                    "internalType": "address",
                    "name": "_targetToken",
                    "type": "address"
                },
                {
                    "internalType": "uint256",
                    "name": "_amount",
                    "type": "uint256"
                }
            ],
            "name": "withdrawTo",
            "outputs": [],
            "stateMutability": "nonpayable",
            "type": "function"
        }
    ],
    "bytecode": "60a0604052306080523480156200001557600080fd5b5060006200002460016200008b565b905080156200003d576000805461ff0019166101001790555b801562000084576000805461ff0019169055604051600181527f7f26b83ff96e1f2b6a682f133852f6798a09c465da95921460cefb38474024989060200160405180910390a15b50620001ac565b60008054610100900460ff161562000124578160ff166001148015620000c45750620000c2306200019d60201b6200218d1760201c565b155b6200011c5760405162461bcd60e51b815260206004820152602e60248201526000805160206200440083398151915260448201526d191e481a5b9a5d1a585b1a5e995960921b60648201526084015b60405180910390fd5b506000919050565b60005460ff808416911610620001835760405162461bcd60e51b815260206004820152602e60248201526000805160206200440083398151915260448201526d191e481a5b9a5d1a585b1a5e995960921b606482015260840162000113565b506000805460ff191660ff92909216919091179055600190565b6001600160a01b03163b151590565b60805161421c620001e460003960008181610ddb01528181610e1b015281816113580152818161139801526114ee015261421c6000f3fe6080604052600436106103815760003560e01c80638f39aa89116101d1578063c3b35a7e11610102578063da742228116100a0578063f3fef3a31161006f578063f3fef3a314610a46578063f72c0d8b14610a66578063f8b2cb4f14610a9a578063fcfe178514610aba57600080fd5b8063da742228146109b2578063dd62ed3e146109d2578063e40108ed14610a18578063f304a00914610a2f57600080fd5b8063d082ea8c116100dc578063d082ea8c14610930578063d4d543c514610950578063d547741f14610972578063d701f5231461099257600080fd5b8063c3b35a7e146108cf578063ca229659146108ef578063cc3f4e201461090f57600080fd5b8063a217fddf1161016f578063a9059cbb11610149578063a9059cbb14610858578063b2552fc414610878578063b731a3da1461088f578063bb380d51146108af57600080fd5b8063a217fddf14610803578063a457c2d714610818578063a6deacad1461083857600080fd5b806395d89b41116101ab57806395d89b411461078d5780639b77c6ab146107a25780639cd01605146107c25780639dc29fac146107e357600080fd5b80638f39aa89146107435780638fb807c51461075857806391d148541461076d57600080fd5b806340c10f19116102b6578063572b6c051161025457806370a082311161022357806370a082311461069f5780637da0a877146106d55780638456cb591461070e57806387f2955d1461072357600080fd5b8063572b6c05146106205780635943745f146106505780635c975abb1461066757806367a63ce91461067f57600080fd5b806349f79b251161029057806349f79b25146105b85780634f1ef286146105d8578063502b8736146105eb57806352d1902d1461060b57600080fd5b806340c10f191461055857806343201b711461057857806347e7ef241461059857600080fd5b80632f2ff15d116103235780633659cfe6116102fd5780633659cfe6146104ec578063395093511461050c5780633a9ad1731461052c5780633f4ba83a1461054357600080fd5b80632f2ff15d1461048e578063313ce567146104b057806336568abe146104cc57600080fd5b806318160ddd1161035f57806318160ddd146103fd57806323b872dd1461041c578063248a9ca31461043c5780632a1fd1521461046c57600080fd5b806301ffc9a71461038657806306fdde03146103bb578063095ea7b3146103dd575b600080fd5b34801561039257600080fd5b506103a66103a13660046137c6565b610acf565b60405190151581526020015b60405180910390f35b3480156103c757600080fd5b506103d0610b06565b6040516103b2919061381c565b3480156103e957600080fd5b506103a66103f8366004613866565b610b98565b34801561040957600080fd5b506067545b6040519081526020016103b2565b34801561042857600080fd5b506103a6610437366004613890565b610bed565b34801561044857600080fd5b5061040e6104573660046138cc565b600090815260c9602052604090206001015490565b34801561047857600080fd5b50610481610cda565b6040516103b291906138e5565b34801561049a57600080fd5b506104ae6104a9366004613932565b610cec565b005b3480156104bc57600080fd5b50604051601281526020016103b2565b3480156104d857600080fd5b506104ae6104e7366004613932565b610d42565b3480156104f857600080fd5b506104ae61050736600461395e565b610dd0565b34801561051857600080fd5b506103a6610527366004613866565b610eb0565b34801561053857600080fd5b5061040e61015f5481565b34801561054f57600080fd5b506104ae610f26565b34801561056457600080fd5b506104ae610573366004613866565b610f39565b34801561058457600080fd5b506104ae610593366004613979565b610fee565b3480156105a457600080fd5b506104ae6105b3366004613866565b611078565b3480156105c457600080fd5b506103a66105d3366004613866565b6112d7565b6104ae6105e6366004613a3a565b61134d565b3480156105f757600080fd5b506103a6610606366004613866565b61141a565b34801561061757600080fd5b5061040e6114e1565b34801561062c57600080fd5b506103a661063b36600461395e565b610168546001600160a01b0391821691161490565b34801561065c57600080fd5b5061040e6101615481565b34801561067357600080fd5b5060335460ff166103a6565b34801561068b57600080fd5b506104ae61069a3660046138cc565b611594565b3480156106ab57600080fd5b5061040e6106ba36600461395e565b6001600160a01b031660009081526065602052604090205490565b3480156106e157600080fd5b50610168546106f6906001600160a01b031681565b6040516001600160a01b0390911681526020016103b2565b34801561071a57600080fd5b506104ae6115e7565b34801561072f57600080fd5b506104ae61073e36600461395e565b6115fa565b34801561074f57600080fd5b506104ae611687565b34801561076457600080fd5b5061040e6116e2565b34801561077957600080fd5b506103a6610788366004613932565b611723565b34801561079957600080fd5b506103d061174e565b3480156107ae57600080fd5b506104ae6107bd366004613b18565b61175d565b3480156107ce57600080fd5b50610169546106f6906001600160a01b031681565b3480156107ef57600080fd5b506104ae6107fe366004613866565b611849565b34801561080f57600080fd5b5061040e600081565b34801561082457600080fd5b506103a6610833366004613866565b6118e7565b34801561084457600080fd5b5061040e61085336600461395e565b6119b0565b34801561086457600080fd5b506103a6610873366004613866565b611a54565b34801561088457600080fd5b5061040e6101645481565b34801561089b57600080fd5b506103a66108aa366004613890565b611b20565b3480156108bb57600080fd5b506104ae6108ca366004613b6a565b611bdf565b3480156108db57600080fd5b506104ae6108ea366004613890565b611c50565b3480156108fb57600080fd5b506104ae61090a366004613bc1565b611dec565b34801561091b57600080fd5b50610165546106f6906001600160a01b031681565b34801561093c57600080fd5b506104ae61094b36600461395e565b61205f565b34801561095c57600080fd5b50610165546103a690600160a01b900460ff1681565b34801561097e57600080fd5b506104ae61098d366004613932565b61208e565b34801561099e57600080fd5b506104ae6109ad366004613c8f565b6120b3565b3480156109be57600080fd5b506104ae6109cd36600461395e565b6120de565b3480156109de57600080fd5b5061040e6109ed366004613cac565b6001600160a01b03918216600090815260666020908152604080832093909416825291909152205490565b348015610a2457600080fd5b5061040e6101635481565b348015610a3b57600080fd5b5061040e6101605481565b348015610a5257600080fd5b506104ae610a61366004613866565b61210d565b348015610a7257600080fd5b5061040e7f189ab7a9244df0848122154315af71fe140f3db0fe014031783b0946b8c9d2e381565b348015610aa657600080fd5b5061040e610ab536600461395e565b61211f565b348015610ac657600080fd5b506104ae612136565b60006001600160e01b03198216637965db0b60e01b1480610b0057506301ffc9a760e01b6001600160e01b03198316145b92915050565b606060688054610b1590613cd6565b80601f0160208091040260200160405190810160405280929190818152602001828054610b4190613cd6565b8015610b8e5780601f10610b6357610100808354040283529160200191610b8e565b820191906000526020600020905b815481529060010190602001808311610b7157829003601f168201915b5050505050905090565b6000610ba660335460ff1690565b15610bcc5760405162461bcd60e51b8152600401610bc390613d11565b60405180910390fd5b6000610bd661219c565b9050610be38185856121c5565b5060019392505050565b6000610bfb60335460ff1690565b15610c185760405162461bcd60e51b8152600401610bc390613d11565b6000610c2261219c565b9050610c2f8582856122e9565b610c3a858585612375565b6101615461016054610c4c9190613d51565b4210610c5a57610c5a611687565b60006101625461015f5485610c6f9190613d69565b610c799190613d88565b9050846001600160a01b0316866001600160a01b03166000805160206141a0833981519152868461015f54604051610cc4939291909283526020830191909152604082015260600190565b60405180910390a36001925050505b9392505050565b6060610ce7610166612543565b905090565b600082815260c96020526040902060010154610d0781612550565b82610d33576001600160a01b0382163b610d335760405162461bcd60e51b8152600401610bc390613daa565b610d3d8383612561565b505050565b610d4a61219c565b6001600160a01b0316816001600160a01b031614610dc25760405162461bcd60e51b815260206004820152602f60248201527f416363657373436f6e74726f6c3a2063616e206f6e6c792072656e6f756e636560448201526e103937b632b9903337b91039b2b63360891b6064820152608401610bc3565b610dcc82826125e8565b5050565b306001600160a01b037f0000000000000000000000000000000000000000000000000000000000000000161415610e195760405162461bcd60e51b8152600401610bc390613dd9565b7f00000000000000000000000000000000000000000000000000000000000000006001600160a01b0316610e62600080516020614180833981519152546001600160a01b031690565b6001600160a01b031614610e885760405162461bcd60e51b8152600401610bc390613e25565b610e918161266d565b60408051600080825260208201909252610ead91839190612703565b50565b6000610ebe60335460ff1690565b15610edb5760405162461bcd60e51b8152600401610bc390613d11565b6000610ee561219c565b6001600160a01b03808216600090815260666020908152604080832093891683529290522054909150610be39082908690610f21908790613d51565b6121c5565b6000610f3181612550565b610ead61286e565b6000610f4481612550565b610f4e8383612907565b6101615461016054610f609190613d51565b4210610f6e57610f6e611687565b60006101625461015f5484610f839190613d69565b610f8d9190613d88565b9050610f9761219c565b6001600160a01b031660006001600160a01b03166000805160206141a0833981519152858461015f54604051610fe0939291909283526020830191909152604082015260600190565b60405180910390a350505050565b6000610ff981612550565b6101645461016354611009611687565b61016485905561101e846402540be400613d69565b61016381905561016454604080518581526020810192909252810183905260608101919091527fa8b9d04fa4b5007f9b5ab57fb75017f4aa2f74ebfadd915306a1efcde21b30c29060800160405180910390a15050505050565b611084610166836129e6565b6110d05760405162461bcd60e51b815260206004820152601c60248201527f4962416c6c756f3a20546f6b656e206e6f7420737570706f72746564000000006044820152606401610bc3565b6110dc610166836129e6565b506111006110e861219c565b610165546001600160a01b0385811692911684612a08565b611108611687565b610165546040516311f9fbc960e21b81526001600160a01b03848116600483015260248201849052909116906347e7ef2490604401600060405180830381600087803b15801561115757600080fd5b505af115801561116b573d6000803e3d6000fd5b505050506000826001600160a01b031663313ce5676040518163ffffffff1660e01b8152600401602060405180830381865afa1580156111af573d6000803e3d6000fd5b505050506040513d601f19601f820116820180604052508101906111d39190613e71565b6111de906012613e94565b6111e990600a613f9b565b6111f39083613d69565b9050600061015f54610162548361120a9190613d69565b6112149190613d88565b905061122761122161219c565b82612907565b61122f61219c565b6001600160a01b031660006001600160a01b03166000805160206141a0833981519152838561015f54604051611278939291909283526020830191909152604082015260600190565b60405180910390a361128861219c565b604080516001600160a01b0387811682526020820187905292909216917f8752a472e571a816aea92eec8dae9baf628e840f4929fbcc2d155e6233ff68a791015b60405180910390a250505050565b60006112e560335460ff1690565b156113025760405162461bcd60e51b8152600401610bc390613d11565b600061130c61219c565b9050611316611687565b600061015f54610162548561132b9190613d69565b6113359190613d88565b90506113428286836121c5565b506001949350505050565b306001600160a01b037f00000000000000000000000000000000000000000000000000000000000000001614156113965760405162461bcd60e51b8152600401610bc390613dd9565b7f00000000000000000000000000000000000000000000000000000000000000006001600160a01b03166113df600080516020614180833981519152546001600160a01b031690565b6001600160a01b0316146114055760405162461bcd60e51b8152600401610bc390613e25565b61140e8261266d565b610dcc82826001612703565b600061142860335460ff1690565b156114455760405162461bcd60e51b8152600401610bc390613d11565b600061144f61219c565b9050611459611687565b600061015f54610162548561146e9190613d69565b6114789190613d88565b9050611485828683612375565b846001600160a01b0316826001600160a01b03166000805160206141a0833981519152838761015f546040516114ce939291909283526020830191909152604082015260600190565b60405180910390a3506001949350505050565b6000306001600160a01b037f000000000000000000000000000000000000000000000000000000000000000016146115815760405162461bcd60e51b815260206004820152603860248201527f555550535570677261646561626c653a206d757374206e6f742062652063616c60448201527f6c6564207468726f7567682064656c656761746563616c6c00000000000000006064820152608401610bc3565b5060008051602061418083398151915290565b600061159f81612550565b61016180549083905560408051828152602081018590527fda2808b33cb1efe1ca36796b9fb2bd91dee4bd52f75dc48934cac3cd929d8c8491015b60405180910390a1505050565b60006115f281612550565b610ead612a62565b600061160581612550565b6001600160a01b0382163b61162c5760405162461bcd60e51b8152600401610bc390613daa565b61016580546001600160a01b038481166001600160a01b031983168117909355604080519190921680825260208201939093527fa1281de8dc38ba2471d8f617276fdd0fa9f5dad5764617985e18f58d717c8a9d91016115da565b60335460ff16156116aa5760405162461bcd60e51b8152600401610bc390613d11565b61016154610160546116bc9190613d51565b42106116e0576116d661015f546101635461016054612abb565b61015f5542610160555b565b6000806116f961015f546101635461016054612abb565b9050610162548161170960675490565b6117139190613d69565b61171d9190613d88565b91505090565b600091825260c9602090815260408084206001600160a01b0393909316845291905290205460ff1690565b606060698054610b1590613cd6565b600061176881612550565b60005b8251811015611843576000846001600160a01b03166370a0823185848151811061179757611797613faa565b60200260200101516040518263ffffffff1660e01b81526004016117ca91906001600160a01b0391909116815260200190565b602060405180830381865afa1580156117e7573d6000803e3d6000fd5b505050506040513d601f19601f8201168201806040525081019061180b9190613fc0565b905061183084838151811061182257611822613faa565b602002602001015182612907565b508061183b81613fd9565b91505061176b565b50505050565b600061185481612550565b61185e8383612adb565b61016154610160546118709190613d51565b421061187e5761187e611687565b60006101625461015f54846118939190613d69565b61189d9190613d88565b905060006118a961219c565b6001600160a01b03166000805160206141a0833981519152858461015f54604051610fe0939291909283526020830191909152604082015260600190565b60006118f560335460ff1690565b156119125760405162461bcd60e51b8152600401610bc390613d11565b600061191c61219c565b6001600160a01b03808216600090815260666020908152604080832093891683529290522054909150838110156119a35760405162461bcd60e51b815260206004820152602560248201527f45524332303a2064656372656173656420616c6c6f77616e63652062656c6f77604482015264207a65726f60d81b6064820152608401610bc3565b61134282868684036121c5565b600061016154610160546119c49190613d51565b4210611a1a5760006119e061015f546101635461016054612abb565b90506101625481611a06856001600160a01b031660009081526065602052604090205490565b611a109190613d69565b610cd39190613d88565b6101625461015f546001600160a01b038416600090815260656020526040902054611a459190613d69565b610b009190613d88565b919050565b6000611a6260335460ff1690565b15611a7f5760405162461bcd60e51b8152600401610bc390613d11565b6000611a8961219c565b9050611a96818585612375565b6101615461016054611aa89190613d51565b4210611ab657611ab6611687565b60006101625461015f5485611acb9190613d69565b611ad59190613d88565b9050846001600160a01b0316826001600160a01b03166000805160206141a0833981519152868461015f546040516114ce939291909283526020830191909152604082015260600190565b6000611b2e60335460ff1690565b15611b4b5760405162461bcd60e51b8152600401610bc390613d11565b6000611b5561219c565b9050611b5f611687565b600061015f546101625485611b749190613d69565b611b7e9190613d88565b9050611b8b8683836122e9565b611b96868683612375565b846001600160a01b0316866001600160a01b03166000805160206141a0833981519152838761015f54604051610cc4939291909283526020830191909152604082015260600190565b6000611bea81612550565b8115611c0257611bfc61016684612c29565b50611c10565b611c0e61016684612c3e565b505b604080516001600160a01b038516815283151560208201527fcf6718cf07f43191a420f4accc97d5fff4cb38292d6d8e0134e496c703b0e70f91016115da565b611c5c610166836129e6565b611ca85760405162461bcd60e51b815260206004820152601c60248201527f4962416c6c756f3a20546f6b656e206e6f7420737570706f72746564000000006044820152606401610bc3565b611cb0611687565b600061015f546101625483611cc59190613d69565b611ccf9190613d88565b9050611ce2611cdc61219c565b82612adb565b61016554604051636ce5768960e11b81526001600160a01b0386811660048301528581166024830152604482018590529091169063d9caed1290606401600060405180830381600087803b158015611d3957600080fd5b505af1158015611d4d573d6000803e3d6000fd5b5050505060006001600160a01b0316611d6461219c565b6001600160a01b03166000805160206141a0833981519152838561015f54604051611da2939291909283526020830191909152604082015260600190565b60405180910390a3611db261219c565b6001600160a01b03167fa0119652c041cac77f43d29fd44ba08b310c2f72aa9199bdff82a12b2a0d9bbe826040516112c991815260200190565b6000611df86001612c53565b90508015611e10576000805461ff0019166101001790555b611e1a8989612cdb565b611e22612d0c565b611e2a612d3b565b611e32612d3b565b6001600160a01b0387163b611e595760405162461bcd60e51b8152600401610bc390613daa565b6001600160a01b0386163b611e805760405162461bcd60e51b8152600401610bc390613daa565b611e8b600088612561565b611eb57f189ab7a9244df0848122154315af71fe140f3db0fe014031783b0946b8c9d2e388612561565b60005b8551811015611f6b57611eef868281518110611ed657611ed6613faa565b6020026020010151610166612c2990919063ffffffff16565b507fcf6718cf07f43191a420f4accc97d5fff4cb38292d6d8e0134e496c703b0e70f868281518110611f2357611f23613faa565b60200260200101516001604051611f519291906001600160a01b039290921682521515602082015260400190565b60405180910390a180611f6381613fd9565b915050611eb8565b50611f7b846402540be400613d69565b61016355610164839055670de0b6b3a764000061016281905561015f55603c61016155426101605561016580546001600160a01b038881166001600160a01b03199283168117909355610168805491861691909216179055604080516000815260208101929092527fa1281de8dc38ba2471d8f617276fdd0fa9f5dad5764617985e18f58d717c8a9d910160405180910390a18015612054576000805461ff0019169055604051600181527f7f26b83ff96e1f2b6a682f133852f6798a09c465da95921460cefb38474024989060200160405180910390a15b505050505050505050565b600061206a81612550565b5061016980546001600160a01b0319166001600160a01b0392909216919091179055565b600082815260c960205260409020600101546120a981612550565b610d3d83836125e8565b60006120be81612550565b506101658054911515600160a01b0260ff60a01b19909216919091179055565b60006120e981612550565b5061016880546001600160a01b0319166001600160a01b0392909216919091179055565b610dcc61211861219c565b8383611c50565b6000806119e061015f546101635461016054612abb565b600061214181612550565b61214961286e565b6121546000336125e8565b506b033b2e3cc1ae9433fc4fa00061016355670de0b6b3a764000061016281905561015f55426101605561032061016455603c61016155565b6001600160a01b03163b151590565b610168546000906001600160a01b03163314156121c0575060131936013560601c90565b503390565b6001600160a01b0383166122275760405162461bcd60e51b8152602060048201526024808201527f45524332303a20617070726f76652066726f6d20746865207a65726f206164646044820152637265737360e01b6064820152608401610bc3565b6001600160a01b0382166122885760405162461bcd60e51b815260206004820152602260248201527f45524332303a20617070726f766520746f20746865207a65726f206164647265604482015261737360f01b6064820152608401610bc3565b6001600160a01b0383811660008181526066602090815260408083209487168084529482529182902085905590518481527f8c5be1e5ebec7d5bd14f71427d1e84f3dd0314c0f7b2291e5b200ac8c7c3b925910160405180910390a3505050565b6001600160a01b03838116600090815260666020908152604080832093861683529290522054600019811461184357818110156123685760405162461bcd60e51b815260206004820152601d60248201527f45524332303a20696e73756666696369656e7420616c6c6f77616e63650000006044820152606401610bc3565b61184384848484036121c5565b6001600160a01b0383166123d95760405162461bcd60e51b815260206004820152602560248201527f45524332303a207472616e736665722066726f6d20746865207a65726f206164604482015264647265737360d81b6064820152608401610bc3565b6001600160a01b03821661243b5760405162461bcd60e51b815260206004820152602360248201527f45524332303a207472616e7366657220746f20746865207a65726f206164647260448201526265737360e81b6064820152608401610bc3565b6001600160a01b038316600090815260656020526040902054818110156124b35760405162461bcd60e51b815260206004820152602660248201527f45524332303a207472616e7366657220616d6f756e7420657863656564732062604482015265616c616e636560d01b6064820152608401610bc3565b6001600160a01b038085166000908152606560205260408082208585039055918516815290812080548492906124ea908490613d51565b92505081905550826001600160a01b0316846001600160a01b03167fddf252ad1be2c89b69c2b068fc378daa952ba7f163c4a11628f55a4df523b3ef8460405161253691815260200190565b60405180910390a3611843565b60606000610cd383612d62565b610ead8161255c61219c565b612dbe565b61256b8282611723565b610dcc57600082815260c9602090815260408083206001600160a01b03851684529091529020805460ff191660011790556125a461219c565b6001600160a01b0316816001600160a01b0316837f2f8788117e7eff1d82e926ec794901d17c78024a50270940304540a733656f0d60405160405180910390a45050565b6125f28282611723565b15610dcc57600082815260c9602090815260408083206001600160a01b03851684529091529020805460ff1916905561262961219c565b6001600160a01b0316816001600160a01b0316837ff6391f5c32d9c69d2a47ea670b442974b53935d1edc7fd64eb21e047a839171b60405160405180910390a45050565b7f189ab7a9244df0848122154315af71fe140f3db0fe014031783b0946b8c9d2e361269781612550565b61016554600160a01b900460ff166126f15760405162461bcd60e51b815260206004820152601c60248201527f4962416c6c756f3a2055706772616465206e6f7420616c6c6f776564000000006044820152606401610bc3565b5050610165805460ff60a01b19169055565b7f4910fdfa16fed3260ed0e7147f7cc6da11a60208b5b9406d12a635614ffd91435460ff161561273657610d3d83612e22565b826001600160a01b03166352d1902d6040518163ffffffff1660e01b8152600401602060405180830381865afa925050508015612790575060408051601f3d908101601f1916820190925261278d91810190613fc0565b60015b6127f35760405162461bcd60e51b815260206004820152602e60248201527f45524331393637557067726164653a206e657720696d706c656d656e7461746960448201526d6f6e206973206e6f74205555505360901b6064820152608401610bc3565b60008051602061418083398151915281146128625760405162461bcd60e51b815260206004820152602960248201527f45524331393637557067726164653a20756e737570706f727465642070726f786044820152681a58589b195555525160ba1b6064820152608401610bc3565b50610d3d838383612ebe565b60335460ff166128b75760405162461bcd60e51b815260206004820152601460248201527314185d5cd8589b194e881b9bdd081c185d5cd95960621b6044820152606401610bc3565b6033805460ff191690557f5db9ee0a495bf2e6ff9c91a7834c1ba4fdd244a5e8aa4e537bd38aeae4b073aa6128ea61219c565b6040516001600160a01b03909116815260200160405180910390a1565b6001600160a01b03821661295d5760405162461bcd60e51b815260206004820152601f60248201527f45524332303a206d696e7420746f20746865207a65726f2061646472657373006044820152606401610bc3565b806067600082825461296f9190613d51565b90915550506001600160a01b0382166000908152606560205260408120805483929061299c908490613d51565b90915550506040518181526001600160a01b038316906000907fddf252ad1be2c89b69c2b068fc378daa952ba7f163c4a11628f55a4df523b3ef9060200160405180910390a35050565b6001600160a01b03811660009081526001830160205260408120541515610cd3565b604080516001600160a01b0385811660248301528416604482015260648082018490528251808303909101815260849091019091526020810180516001600160e01b03166323b872dd60e01b179052611843908590612ee3565b60335460ff1615612a855760405162461bcd60e51b8152600401610bc390613d11565b6033805460ff191660011790557f62e78cea01bee320cd4e420270b5ea74000d11b0c9f74754ebdbfc544b05a2586128ea61219c565b6000814210612ad357612ad084848442612fb5565b93505b509192915050565b6001600160a01b038216612b3b5760405162461bcd60e51b815260206004820152602160248201527f45524332303a206275726e2066726f6d20746865207a65726f206164647265736044820152607360f81b6064820152608401610bc3565b6001600160a01b03821660009081526065602052604090205481811015612baf5760405162461bcd60e51b815260206004820152602260248201527f45524332303a206275726e20616d6f756e7420657863656564732062616c616e604482015261636560f01b6064820152608401610bc3565b6001600160a01b0383166000908152606560205260408120838303905560678054849290612bde908490613ff4565b90915550506040518281526000906001600160a01b038516907fddf252ad1be2c89b69c2b068fc378daa952ba7f163c4a11628f55a4df523b3ef9060200160405180910390a3505050565b6000610cd3836001600160a01b038416612fe9565b6000610cd3836001600160a01b038416613038565b60008054610100900460ff1615612c9a578160ff166001148015612c765750303b155b612c925760405162461bcd60e51b8152600401610bc39061400b565b506000919050565b60005460ff808416911610612cc15760405162461bcd60e51b8152600401610bc39061400b565b506000805460ff191660ff92909216919091179055600190565b600054610100900460ff16612d025760405162461bcd60e51b8152600401610bc390614059565b610dcc828261312b565b600054610100900460ff16612d335760405162461bcd60e51b8152600401610bc390614059565b6116e0613179565b600054610100900460ff166116e05760405162461bcd60e51b8152600401610bc390614059565b606081600001805480602002602001604051908101604052809291908181526020018280548015612db257602002820191906000526020600020905b815481526020019060010190808311612d9e575b50505050509050919050565b612dc88282611723565b610dcc57612de0816001600160a01b031660146131ac565b612deb8360206131ac565b604051602001612dfc9291906140a4565b60408051601f198184030181529082905262461bcd60e51b8252610bc39160040161381c565b6001600160a01b0381163b612e8f5760405162461bcd60e51b815260206004820152602d60248201527f455243313936373a206e657720696d706c656d656e746174696f6e206973206e60448201526c1bdd08184818dbdb9d1c9858dd609a1b6064820152608401610bc3565b60008051602061418083398151915280546001600160a01b0319166001600160a01b0392909216919091179055565b612ec783613348565b600082511180612ed45750805b15610d3d576118438383613388565b6000612f38826040518060400160405280602081526020017f5361666545524332303a206c6f772d6c6576656c2063616c6c206661696c6564815250856001600160a01b03166134739092919063ffffffff16565b805190915015610d3d5780806020019051810190612f569190614119565b610d3d5760405162461bcd60e51b815260206004820152602a60248201527f5361666545524332303a204552433230206f7065726174696f6e20646964206e6044820152691bdd081cdd58d8d9595960b21b6064820152608401610bc3565b6000612fe0612fda85612fc88686613ff4565b6b033b2e3c9fd0803ce800000061348a565b86613548565b95945050505050565b600081815260018301602052604081205461303057508154600181810184556000848152602080822090930184905584548482528286019093526040902091909155610b00565b506000610b00565b6000818152600183016020526040812054801561312157600061305c600183613ff4565b855490915060009061307090600190613ff4565b90508181146130d557600086600001828154811061309057613090613faa565b90600052602060002001549050808760000184815481106130b3576130b3613faa565b6000918252602080832090910192909255918252600188019052604090208390555b85548690806130e6576130e6614136565b600190038181906000526020600020016000905590558560010160008681526020019081526020016000206000905560019350505050610b00565b6000915050610b00565b600054610100900460ff166131525760405162461bcd60e51b8152600401610bc390614059565b815161316590606890602085019061372d565b508051610d3d90606990602084019061372d565b600054610100900460ff166131a05760405162461bcd60e51b8152600401610bc390614059565b6033805460ff19169055565b606060006131bb836002613d69565b6131c6906002613d51565b67ffffffffffffffff8111156131de576131de61399b565b6040519080825280601f01601f191660200182016040528015613208576020820181803683370190505b509050600360fc1b8160008151811061322357613223613faa565b60200101906001600160f81b031916908160001a905350600f60fb1b8160018151811061325257613252613faa565b60200101906001600160f81b031916908160001a9053506000613276846002613d69565b613281906001613d51565b90505b60018111156132f9576f181899199a1a9b1b9c1cb0b131b232b360811b85600f16601081106132b5576132b5613faa565b1a60f81b8282815181106132cb576132cb613faa565b60200101906001600160f81b031916908160001a90535060049490941c936132f28161414c565b9050613284565b508315610cd35760405162461bcd60e51b815260206004820181905260248201527f537472696e67733a20686578206c656e67746820696e73756666696369656e746044820152606401610bc3565b61335181612e22565b6040516001600160a01b038216907fbc7cd75a20ee27fd9adebab32041f755214dbc6bffa90cc0225b39da2e5c2d3b90600090a250565b60606001600160a01b0383163b6133f05760405162461bcd60e51b815260206004820152602660248201527f416464726573733a2064656c65676174652063616c6c20746f206e6f6e2d636f6044820152651b9d1c9858dd60d21b6064820152608401610bc3565b600080846001600160a01b03168460405161340b9190614163565b600060405180830381855af49150503d8060008114613446576040519150601f19603f3d011682016040523d82523d6000602084013e61344b565b606091505b5091509150612fe082826040518060600160405280602781526020016141c060279139613561565b6060613482848460008561359a565b949350505050565b600083801561352a576001841680156134a5578592506134a9565b8392505b50600283046002850494505b84156135245785860286878204146134cc57600080fd5b818101818110156134dc57600080fd5b859004965050600185161561351957858302838782041415871515161561350257600080fd5b8181018181101561351257600080fd5b8590049350505b6002850494506134b5565b50613540565b83801561353a576000925061353e565b8392505b505b509392505050565b60006b033b2e3c9fd0803ce8000000611a1084846136cb565b60608315613570575081610cd3565b8251156135805782518084602001fd5b8160405162461bcd60e51b8152600401610bc3919061381c565b6060824710156135fb5760405162461bcd60e51b815260206004820152602660248201527f416464726573733a20696e73756666696369656e742062616c616e636520666f6044820152651c8818d85b1b60d21b6064820152608401610bc3565b6001600160a01b0385163b6136525760405162461bcd60e51b815260206004820152601d60248201527f416464726573733a2063616c6c20746f206e6f6e2d636f6e74726163740000006044820152606401610bc3565b600080866001600160a01b0316858760405161366e9190614163565b60006040518083038185875af1925050503d80600081146136ab576040519150601f19603f3d011682016040523d82523d6000602084013e6136b0565b606091505b50915091506136c0828286613561565b979650505050505050565b60008115806136ef575082826136e18183613d69565b92506136ed9083613d88565b145b610b005760405162461bcd60e51b815260206004820152600f60248201526e1cd859994b5b5d5b0b59985a5b1959608a1b6044820152606401610bc3565b82805461373990613cd6565b90600052602060002090601f01602090048101928261375b57600085556137a1565b82601f1061377457805160ff19168380011785556137a1565b828001600101855582156137a1579182015b828111156137a1578251825591602001919060010190613786565b506137ad9291506137b1565b5090565b5b808211156137ad57600081556001016137b2565b6000602082840312156137d857600080fd5b81356001600160e01b031981168114610cd357600080fd5b60005b8381101561380b5781810151838201526020016137f3565b838111156118435750506000910152565b602081526000825180602084015261383b8160408501602087016137f0565b601f01601f19169190910160400192915050565b80356001600160a01b0381168114611a4f57600080fd5b6000806040838503121561387957600080fd5b6138828361384f565b946020939093013593505050565b6000806000606084860312156138a557600080fd5b6138ae8461384f565b92506138bc6020850161384f565b9150604084013590509250925092565b6000602082840312156138de57600080fd5b5035919050565b6020808252825182820181905260009190848201906040850190845b818110156139265783516001600160a01b031683529284019291840191600101613901565b50909695505050505050565b6000806040838503121561394557600080fd5b823591506139556020840161384f565b90509250929050565b60006020828403121561397057600080fd5b610cd38261384f565b6000806040838503121561398c57600080fd5b50508035926020909101359150565b634e487b7160e01b600052604160045260246000fd5b604051601f8201601f1916810167ffffffffffffffff811182821017156139da576139da61399b565b604052919050565b600067ffffffffffffffff8311156139fc576139fc61399b565b613a0f601f8401601f19166020016139b1565b9050828152838383011115613a2357600080fd5b828260208301376000602084830101529392505050565b60008060408385031215613a4d57600080fd5b613a568361384f565b9150602083013567ffffffffffffffff811115613a7257600080fd5b8301601f81018513613a8357600080fd5b613a92858235602084016139e2565b9150509250929050565b600082601f830112613aad57600080fd5b8135602067ffffffffffffffff821115613ac957613ac961399b565b8160051b613ad88282016139b1565b9283528481018201928281019087851115613af257600080fd5b83870192505b848310156136c057613b098361384f565b82529183019190830190613af8565b60008060408385031215613b2b57600080fd5b613b348361384f565b9150602083013567ffffffffffffffff811115613b5057600080fd5b613a9285828601613a9c565b8015158114610ead57600080fd5b60008060408385031215613b7d57600080fd5b613b868361384f565b91506020830135613b9681613b5c565b809150509250929050565b600082601f830112613bb257600080fd5b610cd3838335602085016139e2565b600080600080600080600080610100898b031215613bde57600080fd5b883567ffffffffffffffff80821115613bf657600080fd5b613c028c838d01613ba1565b995060208b0135915080821115613c1857600080fd5b613c248c838d01613ba1565b9850613c3260408c0161384f565b9750613c4060608c0161384f565b965060808b0135915080821115613c5657600080fd5b50613c638b828c01613a9c565b94505060a0890135925060c08901359150613c8060e08a0161384f565b90509295985092959890939650565b600060208284031215613ca157600080fd5b8135610cd381613b5c565b60008060408385031215613cbf57600080fd5b613cc88361384f565b91506139556020840161384f565b600181811c90821680613cea57607f821691505b60208210811415613d0b57634e487b7160e01b600052602260045260246000fd5b50919050565b60208082526010908201526f14185d5cd8589b194e881c185d5cd95960821b604082015260600190565b634e487b7160e01b600052601160045260246000fd5b60008219821115613d6457613d64613d3b565b500190565b6000816000190483118215151615613d8357613d83613d3b565b500290565b600082613da557634e487b7160e01b600052601260045260246000fd5b500490565b6020808252601590820152741258905b1b1d5bce88139bdd0818dbdb9d1c9858dd605a1b604082015260600190565b6020808252602c908201527f46756e6374696f6e206d7573742062652063616c6c6564207468726f7567682060408201526b19195b1959d85d1958d85b1b60a21b606082015260800190565b6020808252602c908201527f46756e6374696f6e206d7573742062652063616c6c6564207468726f7567682060408201526b6163746976652070726f787960a01b606082015260800190565b600060208284031215613e8357600080fd5b815160ff81168114610cd357600080fd5b600060ff821660ff841680821015613eae57613eae613d3b565b90039392505050565b600181815b80851115613ef2578160001904821115613ed857613ed8613d3b565b80851615613ee557918102915b93841c9390800290613ebc565b509250929050565b600082613f0957506001610b00565b81613f1657506000610b00565b8160018114613f2c5760028114613f3657613f52565b6001915050610b00565b60ff841115613f4757613f47613d3b565b50506001821b610b00565b5060208310610133831016604e8410600b8410161715613f75575081810a610b00565b613f7f8383613eb7565b8060001904821115613f9357613f93613d3b565b029392505050565b6000610cd360ff841683613efa565b634e487b7160e01b600052603260045260246000fd5b600060208284031215613fd257600080fd5b5051919050565b6000600019821415613fed57613fed613d3b565b5060010190565b60008282101561400657614006613d3b565b500390565b6020808252602e908201527f496e697469616c697a61626c653a20636f6e747261637420697320616c72656160408201526d191e481a5b9a5d1a585b1a5e995960921b606082015260800190565b6020808252602b908201527f496e697469616c697a61626c653a20636f6e7472616374206973206e6f74206960408201526a6e697469616c697a696e6760a81b606082015260800190565b7f416363657373436f6e74726f6c3a206163636f756e74200000000000000000008152600083516140dc8160178501602088016137f0565b7001034b99036b4b9b9b4b733903937b6329607d1b601791840191820152835161410d8160288401602088016137f0565b01602801949350505050565b60006020828403121561412b57600080fd5b8151610cd381613b5c565b634e487b7160e01b600052603160045260246000fd5b60008161415b5761415b613d3b565b506000190190565b600082516141758184602087016137f0565b919091019291505056fe360894a13ba1a3210667c828492db98dca3e2076cc3735a920a3ca505d382bbc356ec6f7c994a8d04a1652fcf168b1ab68dea1df66f1e08c379a0a023b919bf1416464726573733a206c6f772d6c6576656c2064656c65676174652063616c6c206661696c6564a26469706673582212205b793e9530e6e978199906724ca540146125606820a44a542ba99fe9c2e712b364736f6c634300080b0033496e697469616c697a61626c653a20636f6e747261637420697320616c726561",
    "sourcePath": "e:/Coding Projects/alluo-protocol/contracts/Farming/IbAlluo.sol",
    "compiler": {
        "name": "solc",
        "version": "0.8.11+commit.d7f03943"
    },
    "functionHashes": {
        "DEFAULT_ADMIN_ROLE()": "a217fddf",
        "UPGRADER_ROLE()": "f72c0d8b",
        "allowance(address,address)": "dd62ed3e",
        "annualInterest()": "b2552fc4",
        "approve(address,uint256)": "095ea7b3",
        "approveAssetValue(address,uint256)": "49f79b25",
        "balanceOf(address)": "70a08231",
        "burn(address,uint256)": "9dc29fac",
        "changeTokenStatus(address,bool)": "bb380d51",
        "changeUpgradeStatus(bool)": "d701f523",
        "decimals()": "313ce567",
        "decreaseAllowance(address,uint256)": "a457c2d7",
        "deposit(address,uint256)": "47e7ef24",
        "exchangeAddress()": "9cd01605",
        "getBalance(address)": "f8b2cb4f",
        "getBalanceForTransfer(address)": "a6deacad",
        "getListSupportedTokens()": "2a1fd152",
        "getRoleAdmin(bytes32)": "248a9ca3",
        "grantRole(bytes32,address)": "2f2ff15d",
        "growingRatio()": "3a9ad173",
        "hasRole(bytes32,address)": "91d14854",
        "increaseAllowance(address,uint256)": "39509351",
        "initialize(string,string,address,address,address[],uint256,uint256,address)": "ca229659",
        "interestPerSecond()": "e40108ed",
        "isTrustedForwarder(address)": "572b6c05",
        "lastInterestCompound()": "f304a009",
        "liquidityBuffer()": "cc3f4e20",
        "migrateStep1(address,address[])": "9b77c6ab",
        "migrateStep2()": "fcfe1785",
        "mint(address,uint256)": "40c10f19",
        "name()": "06fdde03",
        "pause()": "8456cb59",
        "paused()": "5c975abb",
        "proxiableUUID()": "52d1902d",
        "renounceRole(bytes32,address)": "36568abe",
        "revokeRole(bytes32,address)": "d547741f",
        "setExchangeAddress(address)": "d082ea8c",
        "setInterest(uint256,uint256)": "43201b71",
        "setLiquidityBuffer(address)": "87f2955d",
        "setTrustedForwarder(address)": "da742228",
        "setUpdateTimeLimit(uint256)": "67a63ce9",
        "supportsInterface(bytes4)": "01ffc9a7",
        "symbol()": "95d89b41",
        "totalAssetSupply()": "8fb807c5",
        "totalSupply()": "18160ddd",
        "transfer(address,uint256)": "a9059cbb",
        "transferAssetValue(address,uint256)": "502b8736",
        "transferFrom(address,address,uint256)": "23b872dd",
        "transferFromAssetValue(address,address,uint256)": "b731a3da",
        "trustedForwarder()": "7da0a877",
        "unpause()": "3f4ba83a",
        "updateRatio()": "8f39aa89",
        "updateTimeLimit()": "5943745f",
        "upgradeStatus()": "d4d543c5",
        "upgradeTo(address)": "3659cfe6",
        "upgradeToAndCall(address,bytes)": "4f1ef286",
        "withdraw(address,uint256)": "f3fef3a3",
        "withdrawTo(address,address,uint256)": "c3b35a7e"
    },
    "gasEstimates": {
        "creation": {
            "codeDepositCost": "3384800",
            "executionCost": "infinite",
            "totalCost": "infinite"
        },
        "external": {
            "DEFAULT_ADMIN_ROLE()": "263",
            "UPGRADER_ROLE()": "283",
            "allowance(address,address)": "infinite",
            "annualInterest()": "2384",
            "approve(address,uint256)": "29048",
            "approveAssetValue(address,uint256)": "infinite",
            "balanceOf(address)": "2604",
            "burn(address,uint256)": "infinite",
            "changeTokenStatus(address,bool)": "infinite",
            "changeUpgradeStatus(bool)": "infinite",
            "decimals()": "268",
            "decreaseAllowance(address,uint256)": "31329",
            "deposit(address,uint256)": "infinite",
            "exchangeAddress()": "2449",
            "getBalance(address)": "infinite",
            "getBalanceForTransfer(address)": "infinite",
            "getListSupportedTokens()": "infinite",
            "getRoleAdmin(bytes32)": "2557",
            "grantRole(bytes32,address)": "infinite",
            "growingRatio()": "2407",
            "hasRole(bytes32,address)": "2767",
            "increaseAllowance(address,uint256)": "31374",
            "initialize(string,string,address,address,address[],uint256,uint256,address)": "infinite",
            "interestPerSecond()": "2406",
            "isTrustedForwarder(address)": "2549",
            "lastInterestCompound()": "2428",
            "liquidityBuffer()": "2449",
            "migrateStep1(address,address[])": "infinite",
            "migrateStep2()": "infinite",
            "mint(address,uint256)": "infinite",
            "name()": "infinite",
            "pause()": "infinite",
            "paused()": "2405",
            "proxiableUUID()": "infinite",
            "renounceRole(bytes32,address)": "infinite",
            "revokeRole(bytes32,address)": "infinite",
            "setExchangeAddress(address)": "infinite",
            "setInterest(uint256,uint256)": "infinite",
            "setLiquidityBuffer(address)": "infinite",
            "setTrustedForwarder(address)": "infinite",
            "setUpdateTimeLimit(uint256)": "infinite",
            "supportsInterface(bytes4)": "496",
            "symbol()": "infinite",
            "totalAssetSupply()": "infinite",
            "totalSupply()": "2350",
            "transfer(address,uint256)": "infinite",
            "transferAssetValue(address,uint256)": "infinite",
            "transferFrom(address,address,uint256)": "infinite",
            "transferFromAssetValue(address,address,uint256)": "infinite",
            "trustedForwarder()": "2426",
            "unpause()": "infinite",
            "updateRatio()": "infinite",
            "updateTimeLimit()": "2385",
            "upgradeStatus()": "2405",
            "upgradeTo(address)": "infinite",
            "upgradeToAndCall(address,bytes)": "infinite",
            "withdraw(address,uint256)": "infinite",
            "withdrawTo(address,address,uint256)": "infinite"
        },
        "internal": {
            "_authorizeUpgrade(address)": "infinite",
            "_beforeTokenTransfer(address,address,uint256)": "infinite",
            "_exchange(uint256)": "infinite",
            "_msgData()": "infinite",
            "_msgSender()": "2182"
        }
    }
}