{
    "contractName": "LiquidityBufferUSDAdaptor",
    "abi": [
        {
            "inputs": [
                {
                    "internalType": "address",
                    "name": "_multiSigWallet",
                    "type": "address"
                },
                {
                    "internalType": "address",
                    "name": "_liquidityBuffer",
                    "type": "address"
                }
            ],
            "stateMutability": "nonpayable",
            "type": "constructor"
        },
        {
            "anonymous": false,
            "inputs": [
                {
                    "indexed": true,
                    "internalType": "bytes32",
                    "name": "role",
                    "type": "bytes32"
                },
                {
                    "indexed": true,
                    "internalType": "bytes32",
                    "name": "previousAdminRole",
                    "type": "bytes32"
                },
                {
                    "indexed": true,
                    "internalType": "bytes32",
                    "name": "newAdminRole",
                    "type": "bytes32"
                }
            ],
            "name": "RoleAdminChanged",
            "type": "event"
        },
        {
            "anonymous": false,
            "inputs": [
                {
                    "indexed": true,
                    "internalType": "bytes32",
                    "name": "role",
                    "type": "bytes32"
                },
                {
                    "indexed": true,
                    "internalType": "address",
                    "name": "account",
                    "type": "address"
                },
                {
                    "indexed": true,
                    "internalType": "address",
                    "name": "sender",
                    "type": "address"
                }
            ],
            "name": "RoleGranted",
            "type": "event"
        },
        {
            "anonymous": false,
            "inputs": [
                {
                    "indexed": true,
                    "internalType": "bytes32",
                    "name": "role",
                    "type": "bytes32"
                },
                {
                    "indexed": true,
                    "internalType": "address",
                    "name": "account",
                    "type": "address"
                },
                {
                    "indexed": true,
                    "internalType": "address",
                    "name": "sender",
                    "type": "address"
                }
            ],
            "name": "RoleRevoked",
            "type": "event"
        },
        {
            "inputs": [],
            "name": "DAI",
            "outputs": [
                {
                    "internalType": "address",
                    "name": "",
                    "type": "address"
                }
            ],
            "stateMutability": "view",
            "type": "function"
        },
        {
            "inputs": [],
            "name": "DEFAULT_ADMIN_ROLE",
            "outputs": [
                {
                    "internalType": "bytes32",
                    "name": "",
                    "type": "bytes32"
                }
            ],
            "stateMutability": "view",
            "type": "function"
        },
        {
            "inputs": [],
            "name": "USDC",
            "outputs": [
                {
                    "internalType": "address",
                    "name": "",
                    "type": "address"
                }
            ],
            "stateMutability": "view",
            "type": "function"
        },
        {
            "inputs": [],
            "name": "USDT",
            "outputs": [
                {
                    "internalType": "address",
                    "name": "",
                    "type": "address"
                }
            ],
            "stateMutability": "view",
            "type": "function"
        },
        {
            "inputs": [],
            "name": "Wallet",
            "outputs": [
                {
                    "internalType": "address",
                    "name": "",
                    "type": "address"
                }
            ],
            "stateMutability": "view",
            "type": "function"
        },
        {
            "inputs": [],
            "name": "curvePool",
            "outputs": [
                {
                    "internalType": "address",
                    "name": "",
                    "type": "address"
                }
            ],
            "stateMutability": "view",
            "type": "function"
        },
        {
            "inputs": [
                {
                    "internalType": "address",
                    "name": "_token",
                    "type": "address"
                },
                {
                    "internalType": "uint256",
                    "name": "_fullAmount",
                    "type": "uint256"
                },
                {
                    "internalType": "uint256",
                    "name": "_leaveInPool",
                    "type": "uint256"
                }
            ],
            "name": "deposit",
            "outputs": [],
            "stateMutability": "nonpayable",
            "type": "function"
        },
        {
            "inputs": [],
            "name": "getAdapterAmount",
            "outputs": [
                {
                    "internalType": "uint256",
                    "name": "",
                    "type": "uint256"
                }
            ],
            "stateMutability": "view",
            "type": "function"
        },
        {
            "inputs": [
                {
                    "internalType": "bytes32",
                    "name": "role",
                    "type": "bytes32"
                }
            ],
            "name": "getRoleAdmin",
            "outputs": [
                {
                    "internalType": "bytes32",
                    "name": "",
                    "type": "bytes32"
                }
            ],
            "stateMutability": "view",
            "type": "function"
        },
        {
            "inputs": [
                {
                    "internalType": "bytes32",
                    "name": "role",
                    "type": "bytes32"
                },
                {
                    "internalType": "address",
                    "name": "account",
                    "type": "address"
                }
            ],
            "name": "grantRole",
            "outputs": [],
            "stateMutability": "nonpayable",
            "type": "function"
        },
        {
            "inputs": [
                {
                    "internalType": "bytes32",
                    "name": "role",
                    "type": "bytes32"
                },
                {
                    "internalType": "address",
                    "name": "account",
                    "type": "address"
                }
            ],
            "name": "hasRole",
            "outputs": [
                {
                    "internalType": "bool",
                    "name": "",
                    "type": "bool"
                }
            ],
            "stateMutability": "view",
            "type": "function"
        },
        {
            "inputs": [
                {
                    "internalType": "bytes32",
                    "name": "role",
                    "type": "bytes32"
                },
                {
                    "internalType": "address",
                    "name": "account",
                    "type": "address"
                }
            ],
            "name": "renounceRole",
            "outputs": [],
            "stateMutability": "nonpayable",
            "type": "function"
        },
        {
            "inputs": [
                {
                    "internalType": "bytes32",
                    "name": "role",
                    "type": "bytes32"
                },
                {
                    "internalType": "address",
                    "name": "account",
                    "type": "address"
                }
            ],
            "name": "revokeRole",
            "outputs": [],
            "stateMutability": "nonpayable",
            "type": "function"
        },
        {
            "inputs": [
                {
                    "internalType": "uint32",
                    "name": "_newSlippage",
                    "type": "uint32"
                }
            ],
            "name": "setSlippage",
            "outputs": [],
            "stateMutability": "nonpayable",
            "type": "function"
        },
        {
            "inputs": [
                {
                    "internalType": "address",
                    "name": "newWallet",
                    "type": "address"
                }
            ],
            "name": "setWallet",
            "outputs": [],
            "stateMutability": "nonpayable",
            "type": "function"
        },
        {
            "inputs": [],
            "name": "slippage",
            "outputs": [
                {
                    "internalType": "uint256",
                    "name": "",
                    "type": "uint256"
                }
            ],
            "stateMutability": "view",
            "type": "function"
        },
        {
            "inputs": [
                {
                    "internalType": "bytes4",
                    "name": "interfaceId",
                    "type": "bytes4"
                }
            ],
            "name": "supportsInterface",
            "outputs": [
                {
                    "internalType": "bool",
                    "name": "",
                    "type": "bool"
                }
            ],
            "stateMutability": "view",
            "type": "function"
        },
        {
            "inputs": [
                {
                    "internalType": "address",
                    "name": "_user",
                    "type": "address"
                },
                {
                    "internalType": "address",
                    "name": "_token",
                    "type": "address"
                },
                {
                    "internalType": "uint256",
                    "name": "_amount",
                    "type": "uint256"
                }
            ],
            "name": "withdraw",
            "outputs": [],
            "stateMutability": "nonpayable",
            "type": "function"
        }
    ],
    "bytecode": "6080604052600280546001600160a01b031990811673445fe580ef8d70ff569ab36e80c647af338db35117909155600380548216738f3cf7ad23cd3cadbd9735aff958023239c6a063179055600480548216732791bca1f2de4661ed88a30c99a7a9449aa841741790556005805490911673c2132d05d31c914a87c6611c10748aeb04b58e8f1790553480156200009557600080fd5b50604051620018a0380380620018a0833981016040819052620000b89162000236565b620000d7826001600160a01b03166200016960201b62000f7d1760201c565b620001285760405162461bcd60e51b815260206004820152601460248201527f4275666665723a204e6f7420636f6e7472616374000000000000000000000000604482015260640160405180910390fd5b6200013560008362000178565b6200014260008262000178565b50600180546001600160a01b0319166001600160a01b03929092169190911790556200026e565b6001600160a01b03163b151590565b6000828152602081815260408083206001600160a01b038516845290915290205460ff1662000215576000828152602081815260408083206001600160a01b03851684529091529020805460ff19166001179055620001d43390565b6001600160a01b0316816001600160a01b0316837f2f8788117e7eff1d82e926ec794901d17c78024a50270940304540a733656f0d60405160405180910390a45b5050565b80516001600160a01b03811681146200023157600080fd5b919050565b600080604083850312156200024a57600080fd5b620002558362000219565b9150620002656020840162000219565b90509250929050565b611622806200027e6000396000f3fe608060405234801561001057600080fd5b50600436106101165760003560e01c806389a30271116100a2578063d547741f11610071578063d547741f1461023f578063d9caed1214610252578063deaa59df14610265578063e0bab4c414610278578063f2674f221461028b57600080fd5b806389a30271146101fe57806391d1485414610211578063a217fddf14610224578063c54e44eb1461022c57600080fd5b8063248a9ca3116100e9578063248a9ca3146101965780632f2ff15d146101c757806336568abe146101da5780633e032a3b146101ed5780634db860a2146101f657600080fd5b806301ffc9a71461011b5780630e1b39fb146101435780630efe6a8b1461016e578063218751b214610183575b600080fd5b61012e610129366004611275565b61029e565b60405190151581526020015b60405180910390f35b600154610156906001600160a01b031681565b6040516001600160a01b03909116815260200161013a565b61018161017c3660046112bb565b6102d5565b005b600254610156906001600160a01b031681565b6101b96101a43660046112ee565b60009081526020819052604090206001015490565b60405190815260200161013a565b6101816101d5366004611307565b6107f7565b6101816101e8366004611307565b610822565b6101b960065481565b6101b96108a5565b600454610156906001600160a01b031681565b61012e61021f366004611307565b6109a9565b6101b9600081565b600554610156906001600160a01b031681565b61018161024d366004611307565b6109d2565b610181610260366004611333565b6109f8565b61018161027336600461136f565b610f36565b600354610156906001600160a01b031681565b61018161029936600461138a565b610f65565b60006001600160e01b03198216637965db0b60e01b14806102cf57506301ffc9a760e01b6001600160e01b03198316145b92915050565b60006102e18133610f8c565b60006102ed83856113c6565b6003549091506001600160a01b03868116911614156104de576002546040805160608101825286815260006020820181905281830181905291516315b74c9d60e11b815291926001600160a01b031691632b6e993a91610354918590600190600401611400565b6020604051808303816000875af1158015610373573d6000803e3d6000fd5b505050506040513d601f19601f820116820180604052508101906103979190611424565b6002546006549192506000916001600160a01b039091169063517a55a3908490600190612710906103c890826113c6565b6103d2908961143d565b6103dc919061145c565b6040516001600160e01b031960e086901b1681526004810193909352600f9190910b60248301526044820152600160648201526084016020604051808303816000875af1158015610431573d6000803e3d6000fd5b505050506040513d601f19601f820116820180604052508101906104559190611424565b6004805460015460405163a9059cbb60e01b81526001600160a01b039182169381019390935260248301849052929350919091169063a9059cbb906044016020604051808303816000875af11580156104b2573d6000803e3d6000fd5b505050506040513d601f19601f820116820180604052508101906104d6919061147e565b5050506107f0565b6004546001600160a01b0386811691161415610606576002546040805160608101825260008082526020820187905281830181905291516315b74c9d60e11b81526001600160a01b0390931692632b6e993a926105419291600190600401611400565b6020604051808303816000875af1158015610560573d6000803e3d6000fd5b505050506040513d601f19601f820116820180604052508101906105849190611424565b506004805460015460405163a9059cbb60e01b81526001600160a01b039182169381019390935260248301849052169063a9059cbb906044016020604051808303816000875af11580156105dc573d6000803e3d6000fd5b505050506040513d601f19601f82011682018060405250810190610600919061147e565b506107f0565b6005546001600160a01b03868116911614156107f0576002546040805160608101825260008082526020820181905281830188905291516315b74c9d60e11b815291926001600160a01b031691632b6e993a9161066a918590600190600401611400565b6020604051808303816000875af1158015610689573d6000803e3d6000fd5b505050506040513d601f19601f820116820180604052508101906106ad9190611424565b6002546006549192506000916001600160a01b039091169063517a55a3908490600190612710906106de90826113c6565b6106e8908961143d565b6106f2919061145c565b6040516001600160e01b031960e086901b1681526004810193909352600f9190910b60248301526044820152600160648201526084016020604051808303816000875af1158015610747573d6000803e3d6000fd5b505050506040513d601f19601f8201168201806040525081019061076b9190611424565b6004805460015460405163a9059cbb60e01b81526001600160a01b039182169381019390935260248301849052929350919091169063a9059cbb906044016020604051808303816000875af11580156107c8573d6000803e3d6000fd5b505050506040513d601f19601f820116820180604052508101906107ec919061147e565b5050505b5050505050565b6000828152602081905260409020600101546108138133610f8c565b61081d8383610ff0565b505050565b6001600160a01b03811633146108975760405162461bcd60e51b815260206004820152602f60248201527f416363657373436f6e74726f6c3a2063616e206f6e6c792072656e6f756e636560448201526e103937b632b9903337b91039b2b63360891b60648201526084015b60405180910390fd5b6108a18282611074565b5050565b6040516370a0823160e01b8152306004820152600090819073e7a24ef0c5e95ffb0f6684b813a78f2a3ad7d171906370a0823190602401602060405180830381865afa1580156108f9573d6000803e3d6000fd5b505050506040513d601f19601f8201168201806040525081019061091d9190611424565b905080156109a15760025460405163cc2b27d760e01b815260048101839052600060248201819052916001600160a01b03169063cc2b27d790604401602060405180830381865afa158015610976573d6000803e3d6000fd5b505050506040513d601f19601f8201168201806040525081019061099a9190611424565b9392505050565b600091505090565b6000918252602082815260408084206001600160a01b0393909316845291905290205460ff1690565b6000828152602081905260409020600101546109ee8133610f8c565b61081d8383611074565b6000610a048133610f8c565b6003546001600160a01b0384811691161415610b535760025460408051606081018252848152600060208201819052918101919091526006546001600160a01b0390921691635b8369f5919061271090610a5e90826114a0565b610a68908761143d565b610a72919061145c565b60016040518463ffffffff1660e01b8152600401610a9293929190611400565b6020604051808303816000875af1158015610ab1573d6000803e3d6000fd5b505050506040513d601f19601f82011682018060405250810190610ad59190611424565b5060035460405163a9059cbb60e01b81526001600160a01b038681166004830152602482018590529091169063a9059cbb906044016020604051808303816000875af1158015610b29573d6000803e3d6000fd5b505050506040513d601f19601f82011682018060405250810190610b4d919061147e565b50610f30565b6004546001600160a01b0384811691161415610d4557600254604080516060810182528481526000602082018190528183018190529151633883e11960e01b815291926001600160a01b031691633883e11991610bb49185906004016114b8565b602060405180830381865afa158015610bd1573d6000803e3d6000fd5b505050506040513d601f19601f82011682018060405250810190610bf59190611424565b6002546006549192506000916001600160a01b039091169063517a55a390849060019061271090610c2690826113c6565b610c3564e8d4a510008b61145c565b610c3f919061143d565b610c49919061145c565b6040516001600160e01b031960e086901b1681526004810193909352600f9190910b60248301526044820152600160648201526084016020604051808303816000875af1158015610c9e573d6000803e3d6000fd5b505050506040513d601f19601f82011682018060405250810190610cc29190611424565b6004805460405163a9059cbb60e01b81526001600160a01b038a81169382019390935260248101849052929350169063a9059cbb906044016020604051808303816000875af1158015610d19573d6000803e3d6000fd5b505050506040513d601f19601f82011682018060405250810190610d3d919061147e565b505050610f30565b6005546001600160a01b0384811691161415610f3057600254604080516060810182528481526000602082018190528183018190529151633883e11960e01b815291926001600160a01b031691633883e11991610da69185906004016114b8565b602060405180830381865afa158015610dc3573d6000803e3d6000fd5b505050506040513d601f19601f82011682018060405250810190610de79190611424565b600280546006549293506000926001600160a01b039091169163517a55a39185919061271090610e1790826113c6565b610e2664e8d4a510008b61145c565b610e30919061143d565b610e3a919061145c565b6040516001600160e01b031960e086901b1681526004810193909352600f9190910b60248301526044820152600160648201526084016020604051808303816000875af1158015610e8f573d6000803e3d6000fd5b505050506040513d601f19601f82011682018060405250810190610eb39190611424565b60055460405163a9059cbb60e01b81526001600160a01b0389811660048301526024820184905292935091169063a9059cbb906044016020604051808303816000875af1158015610f08573d6000803e3d6000fd5b505050506040513d601f19601f82011682018060405250810190610f2c919061147e565b5050505b50505050565b6000610f428133610f8c565b50600180546001600160a01b0319166001600160a01b0392909216919091179055565b6000610f718133610f8c565b5063ffffffff16600655565b6001600160a01b03163b151590565b610f9682826109a9565b6108a157610fae816001600160a01b031660146110d9565b610fb98360206110d9565b604051602001610fca929190611501565b60408051601f198184030181529082905262461bcd60e51b825261088e91600401611576565b610ffa82826109a9565b6108a1576000828152602081815260408083206001600160a01b03851684529091529020805460ff191660011790556110303390565b6001600160a01b0316816001600160a01b0316837f2f8788117e7eff1d82e926ec794901d17c78024a50270940304540a733656f0d60405160405180910390a45050565b61107e82826109a9565b156108a1576000828152602081815260408083206001600160a01b0385168085529252808320805460ff1916905551339285917ff6391f5c32d9c69d2a47ea670b442974b53935d1edc7fd64eb21e047a839171b9190a45050565b606060006110e883600261143d565b6110f39060026114a0565b67ffffffffffffffff81111561110b5761110b6115a9565b6040519080825280601f01601f191660200182016040528015611135576020820181803683370190505b509050600360fc1b81600081518110611150576111506115bf565b60200101906001600160f81b031916908160001a905350600f60fb1b8160018151811061117f5761117f6115bf565b60200101906001600160f81b031916908160001a90535060006111a384600261143d565b6111ae9060016114a0565b90505b6001811115611226576f181899199a1a9b1b9c1cb0b131b232b360811b85600f16601081106111e2576111e26115bf565b1a60f81b8282815181106111f8576111f86115bf565b60200101906001600160f81b031916908160001a90535060049490941c9361121f816115d5565b90506111b1565b50831561099a5760405162461bcd60e51b815260206004820181905260248201527f537472696e67733a20686578206c656e67746820696e73756666696369656e74604482015260640161088e565b60006020828403121561128757600080fd5b81356001600160e01b03198116811461099a57600080fd5b80356001600160a01b03811681146112b657600080fd5b919050565b6000806000606084860312156112d057600080fd5b6112d98461129f565b95602085013595506040909401359392505050565b60006020828403121561130057600080fd5b5035919050565b6000806040838503121561131a57600080fd5b8235915061132a6020840161129f565b90509250929050565b60008060006060848603121561134857600080fd5b6113518461129f565b925061135f6020850161129f565b9150604084013590509250925092565b60006020828403121561138157600080fd5b61099a8261129f565b60006020828403121561139c57600080fd5b813563ffffffff8116811461099a57600080fd5b634e487b7160e01b600052601160045260246000fd5b6000828210156113d8576113d86113b0565b500390565b8060005b6003811015610f305781518452602093840193909101906001016113e1565b60a0810161140e82866113dd565b8360608301528215156080830152949350505050565b60006020828403121561143657600080fd5b5051919050565b6000816000190483118215151615611457576114576113b0565b500290565b60008261147957634e487b7160e01b600052601260045260246000fd5b500490565b60006020828403121561149057600080fd5b8151801515811461099a57600080fd5b600082198211156114b3576114b36113b0565b500190565b608081016114c682856113dd565b82151560608301529392505050565b60005b838110156114f05781810151838201526020016114d8565b83811115610f305750506000910152565b7f416363657373436f6e74726f6c3a206163636f756e74200000000000000000008152600083516115398160178501602088016114d5565b7001034b99036b4b9b9b4b733903937b6329607d1b601791840191820152835161156a8160288401602088016114d5565b01602801949350505050565b60208152600082518060208401526115958160408501602087016114d5565b601f01601f19169190910160400192915050565b634e487b7160e01b600052604160045260246000fd5b634e487b7160e01b600052603260045260246000fd5b6000816115e4576115e46113b0565b50600019019056fea26469706673582212203ac95e513eb5c15dcbe32a4b49ed2ef2e9384e4d0b3af3965a0973b3aeb72a3264736f6c634300080b0033",
    "sourcePath": "/Users/sungeunchoi/Projects/alluo-protocol/contracts/Farming/USDAdaptor.sol",
    "compiler": {
        "name": "solc",
        "version": "0.8.11+commit.d7f03943"
    },
    "functionHashes": {
        "DAI()": "e0bab4c4",
        "DEFAULT_ADMIN_ROLE()": "a217fddf",
        "USDC()": "89a30271",
        "USDT()": "c54e44eb",
        "Wallet()": "0e1b39fb",
        "curvePool()": "218751b2",
        "deposit(address,uint256,uint256)": "0efe6a8b",
        "getAdapterAmount()": "4db860a2",
        "getRoleAdmin(bytes32)": "248a9ca3",
        "grantRole(bytes32,address)": "2f2ff15d",
        "hasRole(bytes32,address)": "91d14854",
        "renounceRole(bytes32,address)": "36568abe",
        "revokeRole(bytes32,address)": "d547741f",
        "setSlippage(uint32)": "f2674f22",
        "setWallet(address)": "deaa59df",
        "slippage()": "3e032a3b",
        "supportsInterface(bytes4)": "01ffc9a7",
        "withdraw(address,address,uint256)": "d9caed12"
    },
    "gasEstimates": {
        "creation": {
            "codeDepositCost": "1133200",
            "executionCost": "infinite",
            "totalCost": "infinite"
        },
        "external": {
            "DAI()": "2425",
            "DEFAULT_ADMIN_ROLE()": "262",
            "USDC()": "2360",
            "USDT()": "2426",
            "Wallet()": "2383",
            "curvePool()": "2427",
            "deposit(address,uint256,uint256)": "infinite",
            "getAdapterAmount()": "infinite",
            "getRoleAdmin(bytes32)": "2470",
            "grantRole(bytes32,address)": "infinite",
            "hasRole(bytes32,address)": "2696",
            "renounceRole(bytes32,address)": "29062",
            "revokeRole(bytes32,address)": "infinite",
            "setSlippage(uint32)": "infinite",
            "setWallet(address)": "infinite",
            "slippage()": "2384",
            "supportsInterface(bytes4)": "450",
            "withdraw(address,address,uint256)": "infinite"
        }
    }
}