{
    "contractName": "USDAdaptor",
    "abi": [
        {
            "inputs": [
                {
                    "internalType": "address",
                    "name": "_multiSigWallet",
                    "type": "address"
                },
                {
                    "internalType": "address",
                    "name": "_liquidityBuffer",
                    "type": "address"
                }
            ],
            "stateMutability": "nonpayable",
            "type": "constructor"
        },
        {
            "anonymous": false,
            "inputs": [
                {
                    "indexed": true,
                    "internalType": "bytes32",
                    "name": "role",
                    "type": "bytes32"
                },
                {
                    "indexed": true,
                    "internalType": "bytes32",
                    "name": "previousAdminRole",
                    "type": "bytes32"
                },
                {
                    "indexed": true,
                    "internalType": "bytes32",
                    "name": "newAdminRole",
                    "type": "bytes32"
                }
            ],
            "name": "RoleAdminChanged",
            "type": "event"
        },
        {
            "anonymous": false,
            "inputs": [
                {
                    "indexed": true,
                    "internalType": "bytes32",
                    "name": "role",
                    "type": "bytes32"
                },
                {
                    "indexed": true,
                    "internalType": "address",
                    "name": "account",
                    "type": "address"
                },
                {
                    "indexed": true,
                    "internalType": "address",
                    "name": "sender",
                    "type": "address"
                }
            ],
            "name": "RoleGranted",
            "type": "event"
        },
        {
            "anonymous": false,
            "inputs": [
                {
                    "indexed": true,
                    "internalType": "bytes32",
                    "name": "role",
                    "type": "bytes32"
                },
                {
                    "indexed": true,
                    "internalType": "address",
                    "name": "account",
                    "type": "address"
                },
                {
                    "indexed": true,
                    "internalType": "address",
                    "name": "sender",
                    "type": "address"
                }
            ],
            "name": "RoleRevoked",
            "type": "event"
        },
        {
            "inputs": [],
            "name": "DAI",
            "outputs": [
                {
                    "internalType": "address",
                    "name": "",
                    "type": "address"
                }
            ],
            "stateMutability": "view",
            "type": "function"
        },
        {
            "inputs": [],
            "name": "DEFAULT_ADMIN_ROLE",
            "outputs": [
                {
                    "internalType": "bytes32",
                    "name": "",
                    "type": "bytes32"
                }
            ],
            "stateMutability": "view",
            "type": "function"
        },
        {
            "inputs": [],
            "name": "USDC",
            "outputs": [
                {
                    "internalType": "address",
                    "name": "",
                    "type": "address"
                }
            ],
            "stateMutability": "view",
            "type": "function"
        },
        {
            "inputs": [],
            "name": "USDT",
            "outputs": [
                {
                    "internalType": "address",
                    "name": "",
                    "type": "address"
                }
            ],
            "stateMutability": "view",
            "type": "function"
        },
        {
            "inputs": [],
            "name": "Wallet",
            "outputs": [
                {
                    "internalType": "address",
                    "name": "",
                    "type": "address"
                }
            ],
            "stateMutability": "view",
            "type": "function"
        },
        {
            "inputs": [],
            "name": "curvePool",
            "outputs": [
                {
                    "internalType": "address",
                    "name": "",
                    "type": "address"
                }
            ],
            "stateMutability": "view",
            "type": "function"
        },
        {
            "inputs": [
                {
                    "internalType": "address",
                    "name": "_token",
                    "type": "address"
                },
                {
                    "internalType": "uint256",
                    "name": "_fullAmount",
                    "type": "uint256"
                },
                {
                    "internalType": "uint256",
                    "name": "_leaveInPool",
                    "type": "uint256"
                }
            ],
            "name": "deposit",
            "outputs": [],
            "stateMutability": "nonpayable",
            "type": "function"
        },
        {
            "inputs": [],
            "name": "getAdapterAmount",
            "outputs": [
                {
                    "internalType": "uint256",
                    "name": "",
                    "type": "uint256"
                }
            ],
            "stateMutability": "view",
            "type": "function"
        },
        {
            "inputs": [
                {
                    "internalType": "bytes32",
                    "name": "role",
                    "type": "bytes32"
                }
            ],
            "name": "getRoleAdmin",
            "outputs": [
                {
                    "internalType": "bytes32",
                    "name": "",
                    "type": "bytes32"
                }
            ],
            "stateMutability": "view",
            "type": "function"
        },
        {
            "inputs": [
                {
                    "internalType": "bytes32",
                    "name": "role",
                    "type": "bytes32"
                },
                {
                    "internalType": "address",
                    "name": "account",
                    "type": "address"
                }
            ],
            "name": "grantRole",
            "outputs": [],
            "stateMutability": "nonpayable",
            "type": "function"
        },
        {
            "inputs": [
                {
                    "internalType": "bytes32",
                    "name": "role",
                    "type": "bytes32"
                },
                {
                    "internalType": "address",
                    "name": "account",
                    "type": "address"
                }
            ],
            "name": "hasRole",
            "outputs": [
                {
                    "internalType": "bool",
                    "name": "",
                    "type": "bool"
                }
            ],
            "stateMutability": "view",
            "type": "function"
        },
        {
            "inputs": [
                {
                    "internalType": "bytes32",
                    "name": "role",
                    "type": "bytes32"
                },
                {
                    "internalType": "address",
                    "name": "account",
                    "type": "address"
                }
            ],
            "name": "renounceRole",
            "outputs": [],
            "stateMutability": "nonpayable",
            "type": "function"
        },
        {
            "inputs": [
                {
                    "internalType": "bytes32",
                    "name": "role",
                    "type": "bytes32"
                },
                {
                    "internalType": "address",
                    "name": "account",
                    "type": "address"
                }
            ],
            "name": "revokeRole",
            "outputs": [],
            "stateMutability": "nonpayable",
            "type": "function"
        },
        {
            "inputs": [
                {
                    "internalType": "uint32",
                    "name": "_newSlippage",
                    "type": "uint32"
                }
            ],
            "name": "setSlippage",
            "outputs": [],
            "stateMutability": "nonpayable",
            "type": "function"
        },
        {
            "inputs": [
                {
                    "internalType": "address",
                    "name": "newWallet",
                    "type": "address"
                }
            ],
            "name": "setWallet",
            "outputs": [],
            "stateMutability": "nonpayable",
            "type": "function"
        },
        {
            "inputs": [],
            "name": "slippage",
            "outputs": [
                {
                    "internalType": "uint256",
                    "name": "",
                    "type": "uint256"
                }
            ],
            "stateMutability": "view",
            "type": "function"
        },
        {
            "inputs": [
                {
                    "internalType": "bytes4",
                    "name": "interfaceId",
                    "type": "bytes4"
                }
            ],
            "name": "supportsInterface",
            "outputs": [
                {
                    "internalType": "bool",
                    "name": "",
                    "type": "bool"
                }
            ],
            "stateMutability": "view",
            "type": "function"
        },
        {
            "inputs": [
                {
                    "internalType": "address",
                    "name": "_user",
                    "type": "address"
                },
                {
                    "internalType": "address",
                    "name": "_token",
                    "type": "address"
                },
                {
                    "internalType": "uint256",
                    "name": "_amount",
                    "type": "uint256"
                }
            ],
            "name": "withdraw",
            "outputs": [],
            "stateMutability": "nonpayable",
            "type": "function"
        }
    ],
    "bytecode": "6080604052600280546001600160a01b031990811673445fe580ef8d70ff569ab36e80c647af338db35117909155600380548216738f3cf7ad23cd3cadbd9735aff958023239c6a063179055600480548216732791bca1f2de4661ed88a30c99a7a9449aa841741790556005805490911673c2132d05d31c914a87c6611c10748aeb04b58e8f1790553480156200009557600080fd5b5060405162001ab438038062001ab4833981016040819052620000b89162000236565b620000d7826001600160a01b03166200016960201b620010e51760201c565b620001285760405162461bcd60e51b815260206004820152601460248201527f4275666665723a204e6f7420636f6e7472616374000000000000000000000000604482015260640160405180910390fd5b6200013560008362000178565b6200014260008262000178565b50600180546001600160a01b0319166001600160a01b03929092169190911790556200026e565b6001600160a01b03163b151590565b6000828152602081815260408083206001600160a01b038516845290915290205460ff1662000215576000828152602081815260408083206001600160a01b03851684529091529020805460ff19166001179055620001d43390565b6001600160a01b0316816001600160a01b0316837f2f8788117e7eff1d82e926ec794901d17c78024a50270940304540a733656f0d60405160405180910390a45b5050565b80516001600160a01b03811681146200023157600080fd5b919050565b600080604083850312156200024a57600080fd5b620002558362000219565b9150620002656020840162000219565b90509250929050565b611836806200027e6000396000f3fe608060405234801561001057600080fd5b50600436106101165760003560e01c806389a30271116100a2578063d547741f11610071578063d547741f1461023f578063d9caed1214610252578063deaa59df14610265578063e0bab4c414610278578063f2674f221461028b57600080fd5b806389a30271146101fe57806391d1485414610211578063a217fddf14610224578063c54e44eb1461022c57600080fd5b8063248a9ca3116100e9578063248a9ca3146101965780632f2ff15d146101c757806336568abe146101da5780633e032a3b146101ed5780634db860a2146101f657600080fd5b806301ffc9a71461011b5780630e1b39fb146101435780630efe6a8b1461016e578063218751b214610183575b600080fd5b61012e610129366004611489565b61029e565b60405190151581526020015b60405180910390f35b600154610156906001600160a01b031681565b6040516001600160a01b03909116815260200161013a565b61018161017c3660046114cf565b6102d5565b005b600254610156906001600160a01b031681565b6101b96101a4366004611502565b60009081526020819052604090206001015490565b60405190815260200161013a565b6101816101d536600461151b565b61095f565b6101816101e836600461151b565b61098a565b6101b960065481565b6101b9610a0d565b600454610156906001600160a01b031681565b61012e61021f36600461151b565b610b11565b6101b9600081565b600554610156906001600160a01b031681565b61018161024d36600461151b565b610b3a565b610181610260366004611547565b610b60565b610181610273366004611583565b61109e565b600354610156906001600160a01b031681565b61018161029936600461159e565b6110cd565b60006001600160e01b03198216637965db0b60e01b14806102cf57506301ffc9a760e01b6001600160e01b03198316145b92915050565b60006102e181336110f4565b60006102ed83856115da565b905061031860405180604001604052806008815260200167476f74206865726560c01b815250611158565b6003546001600160a01b038681169116141561059e576103586040518060400160405280600981526020016823b7ba103432b9329960b91b815250611158565b6103618461119e565b6002546040805160608101825286815260006020820181905281830181905291516315b74c9d60e11b815291926001600160a01b031691632b6e993a916103af918590600190600401611614565b6020604051808303816000875af11580156103ce573d6000803e3d6000fd5b505050506040513d601f19601f820116820180604052508101906103f29190611638565b90506104186040518060400160405280600381526020016268613160e81b815250611158565b6002546006546000916001600160a01b03169063517a55a39084906001906127109061044490826115da565b61044e9089611651565b6104589190611670565b6040516001600160e01b031960e086901b1681526004810193909352600f9190910b60248301526044820152600160648201526084016020604051808303816000875af11580156104ad573d6000803e3d6000fd5b505050506040513d601f19601f820116820180604052508101906104d19190611638565b90506104f76040518060400160405280600381526020016234309960e91b815250611158565b6004805460015460405163a9059cbb60e01b81526001600160a01b039182169381019390935260248301849052169063a9059cbb906044016020604051808303816000875af115801561054e573d6000803e3d6000fd5b505050506040513d601f19601f820116820180604052508101906105729190611692565b506105976040518060400160405280600381526020016268613360e81b815250611158565b5050610958565b6004546001600160a01b0386811691161415610722576105de60405180604001604052806009815260200168476f7420686572653360b81b815250611158565b6002546040805160608101909152600081526001600160a01b0390911690632b6e993a906020810161061564e8d4a5100088611670565b81526020016000815250600060016040518463ffffffff1660e01b815260040161064193929190611614565b6020604051808303816000875af1158015610660573d6000803e3d6000fd5b505050506040513d601f19601f820116820180604052508101906106849190611638565b506004546001546001600160a01b039182169163a9059cbb91166106ad64e8d4a5100085611670565b6040516001600160e01b031960e085901b1681526001600160a01b03909216600483015260248201526044016020604051808303816000875af11580156106f8573d6000803e3d6000fd5b505050506040513d601f19601f8201168201806040525081019061071c9190611692565b50610958565b6005546001600160a01b0386811691161415610958576107626040518060400160405280600981526020016811dbdd081a195c994d60ba1b815250611158565b60025460408051606081018252600080825260208201819052926001600160a01b031691632b6e993a9190810161079e64e8d4a510008a611670565b815250600060016040518463ffffffff1660e01b81526004016107c393929190611614565b6020604051808303816000875af11580156107e2573d6000803e3d6000fd5b505050506040513d601f19601f820116820180604052508101906108069190611638565b6002546006549192506000916001600160a01b039091169063517a55a39084906001906127109061083790826115da565b61084664e8d4a510008a611670565b6108509190611651565b61085a9190611670565b6040516001600160e01b031960e086901b1681526004810193909352600f9190910b60248301526044820152600160648201526084016020604051808303816000875af11580156108af573d6000803e3d6000fd5b505050506040513d601f19601f820116820180604052508101906108d39190611638565b6004805460015460405163a9059cbb60e01b81526001600160a01b039182169381019390935260248301849052929350919091169063a9059cbb906044016020604051808303816000875af1158015610930573d6000803e3d6000fd5b505050506040513d601f19601f820116820180604052508101906109549190611692565b5050505b5050505050565b60008281526020819052604090206001015461097b81336110f4565b61098583836111e3565b505050565b6001600160a01b03811633146109ff5760405162461bcd60e51b815260206004820152602f60248201527f416363657373436f6e74726f6c3a2063616e206f6e6c792072656e6f756e636560448201526e103937b632b9903337b91039b2b63360891b60648201526084015b60405180910390fd5b610a098282611267565b5050565b6040516370a0823160e01b8152306004820152600090819073e7a24ef0c5e95ffb0f6684b813a78f2a3ad7d171906370a0823190602401602060405180830381865afa158015610a61573d6000803e3d6000fd5b505050506040513d601f19601f82011682018060405250810190610a859190611638565b90508015610b095760025460405163cc2b27d760e01b815260048101839052600060248201819052916001600160a01b03169063cc2b27d790604401602060405180830381865afa158015610ade573d6000803e3d6000fd5b505050506040513d601f19601f82011682018060405250810190610b029190611638565b9392505050565b600091505090565b6000918252602082815260408084206001600160a01b0393909316845291905290205460ff1690565b600082815260208190526040902060010154610b5681336110f4565b6109858383611267565b6000610b6c81336110f4565b6003546001600160a01b0384811691161415610cbb5760025460408051606081018252848152600060208201819052918101919091526006546001600160a01b0390921691635b8369f5919061271090610bc690826116b4565b610bd09087611651565b610bda9190611670565b60016040518463ffffffff1660e01b8152600401610bfa93929190611614565b6020604051808303816000875af1158015610c19573d6000803e3d6000fd5b505050506040513d601f19601f82011682018060405250810190610c3d9190611638565b5060035460405163a9059cbb60e01b81526001600160a01b038681166004830152602482018590529091169063a9059cbb906044016020604051808303816000875af1158015610c91573d6000803e3d6000fd5b505050506040513d601f19601f82011682018060405250810190610cb59190611692565b50611098565b6004546001600160a01b0384811691161415610ead57600254604080516060810182528481526000602082018190528183018190529151633883e11960e01b815291926001600160a01b031691633883e11991610d1c9185906004016116cc565b602060405180830381865afa158015610d39573d6000803e3d6000fd5b505050506040513d601f19601f82011682018060405250810190610d5d9190611638565b6002546006549192506000916001600160a01b039091169063517a55a390849060019061271090610d8e90826115da565b610d9d64e8d4a510008b611670565b610da79190611651565b610db19190611670565b6040516001600160e01b031960e086901b1681526004810193909352600f9190910b60248301526044820152600160648201526084016020604051808303816000875af1158015610e06573d6000803e3d6000fd5b505050506040513d601f19601f82011682018060405250810190610e2a9190611638565b6004805460405163a9059cbb60e01b81526001600160a01b038a81169382019390935260248101849052929350169063a9059cbb906044016020604051808303816000875af1158015610e81573d6000803e3d6000fd5b505050506040513d601f19601f82011682018060405250810190610ea59190611692565b505050611098565b6005546001600160a01b038481169116141561109857600254604080516060810182528481526000602082018190528183018190529151633883e11960e01b815291926001600160a01b031691633883e11991610f0e9185906004016116cc565b602060405180830381865afa158015610f2b573d6000803e3d6000fd5b505050506040513d601f19601f82011682018060405250810190610f4f9190611638565b600280546006549293506000926001600160a01b039091169163517a55a39185919061271090610f7f90826115da565b610f8e64e8d4a510008b611670565b610f989190611651565b610fa29190611670565b6040516001600160e01b031960e086901b1681526004810193909352600f9190910b60248301526044820152600160648201526084016020604051808303816000875af1158015610ff7573d6000803e3d6000fd5b505050506040513d601f19601f8201168201806040525081019061101b9190611638565b60055460405163a9059cbb60e01b81526001600160a01b0389811660048301526024820184905292935091169063a9059cbb906044016020604051808303816000875af1158015611070573d6000803e3d6000fd5b505050506040513d601f19601f820116820180604052508101906110949190611692565b5050505b50505050565b60006110aa81336110f4565b50600180546001600160a01b0319166001600160a01b0392909216919091179055565b60006110d981336110f4565b5063ffffffff16600655565b6001600160a01b03163b151590565b6110fe8282610b11565b610a0957611116816001600160a01b031660146112cc565b6111218360206112cc565b604051602001611132929190611715565b60408051601f198184030181529082905262461bcd60e51b82526109f69160040161178a565b61119b8160405160240161116c919061178a565b60408051601f198184030181529190526020810180516001600160e01b031663104c13eb60e21b179052611468565b50565b61119b816040516024016111b491815260200190565b60408051601f198184030181529190526020810180516001600160e01b031663f5b1bba960e01b179052611468565b6111ed8282610b11565b610a09576000828152602081815260408083206001600160a01b03851684529091529020805460ff191660011790556112233390565b6001600160a01b0316816001600160a01b0316837f2f8788117e7eff1d82e926ec794901d17c78024a50270940304540a733656f0d60405160405180910390a45050565b6112718282610b11565b15610a09576000828152602081815260408083206001600160a01b0385168085529252808320805460ff1916905551339285917ff6391f5c32d9c69d2a47ea670b442974b53935d1edc7fd64eb21e047a839171b9190a45050565b606060006112db836002611651565b6112e69060026116b4565b67ffffffffffffffff8111156112fe576112fe6117bd565b6040519080825280601f01601f191660200182016040528015611328576020820181803683370190505b509050600360fc1b81600081518110611343576113436117d3565b60200101906001600160f81b031916908160001a905350600f60fb1b81600181518110611372576113726117d3565b60200101906001600160f81b031916908160001a9053506000611396846002611651565b6113a19060016116b4565b90505b6001811115611419576f181899199a1a9b1b9c1cb0b131b232b360811b85600f16601081106113d5576113d56117d3565b1a60f81b8282815181106113eb576113eb6117d3565b60200101906001600160f81b031916908160001a90535060049490941c93611412816117e9565b90506113a4565b508315610b025760405162461bcd60e51b815260206004820181905260248201527f537472696e67733a20686578206c656e67746820696e73756666696369656e7460448201526064016109f6565b80516a636f6e736f6c652e6c6f67602083016000808483855afa5050505050565b60006020828403121561149b57600080fd5b81356001600160e01b031981168114610b0257600080fd5b80356001600160a01b03811681146114ca57600080fd5b919050565b6000806000606084860312156114e457600080fd5b6114ed846114b3565b95602085013595506040909401359392505050565b60006020828403121561151457600080fd5b5035919050565b6000806040838503121561152e57600080fd5b8235915061153e602084016114b3565b90509250929050565b60008060006060848603121561155c57600080fd5b611565846114b3565b9250611573602085016114b3565b9150604084013590509250925092565b60006020828403121561159557600080fd5b610b02826114b3565b6000602082840312156115b057600080fd5b813563ffffffff81168114610b0257600080fd5b634e487b7160e01b600052601160045260246000fd5b6000828210156115ec576115ec6115c4565b500390565b8060005b60038110156110985781518452602093840193909101906001016115f5565b60a0810161162282866115f1565b8360608301528215156080830152949350505050565b60006020828403121561164a57600080fd5b5051919050565b600081600019048311821515161561166b5761166b6115c4565b500290565b60008261168d57634e487b7160e01b600052601260045260246000fd5b500490565b6000602082840312156116a457600080fd5b81518015158114610b0257600080fd5b600082198211156116c7576116c76115c4565b500190565b608081016116da82856115f1565b82151560608301529392505050565b60005b838110156117045781810151838201526020016116ec565b838111156110985750506000910152565b7f416363657373436f6e74726f6c3a206163636f756e742000000000000000000081526000835161174d8160178501602088016116e9565b7001034b99036b4b9b9b4b733903937b6329607d1b601791840191820152835161177e8160288401602088016116e9565b01602801949350505050565b60208152600082518060208401526117a98160408501602087016116e9565b601f01601f19169190910160400192915050565b634e487b7160e01b600052604160045260246000fd5b634e487b7160e01b600052603260045260246000fd5b6000816117f8576117f86115c4565b50600019019056fea26469706673582212202db3910857ad6c5eac1305bd164a8856c50a61acb4920463527a0debcfdb9f4f64736f6c634300080b0033",
    "sourcePath": "/Users/sungeunchoi/Projects/alluo-protocol/contracts/Farming/USDAdaptor.sol",
    "compiler": {
        "name": "solc",
        "version": "0.8.11+commit.d7f03943"
    },
    "functionHashes": {
        "DAI()": "e0bab4c4",
        "DEFAULT_ADMIN_ROLE()": "a217fddf",
        "USDC()": "89a30271",
        "USDT()": "c54e44eb",
        "Wallet()": "0e1b39fb",
        "curvePool()": "218751b2",
        "deposit(address,uint256,uint256)": "0efe6a8b",
        "getAdapterAmount()": "4db860a2",
        "getRoleAdmin(bytes32)": "248a9ca3",
        "grantRole(bytes32,address)": "2f2ff15d",
        "hasRole(bytes32,address)": "91d14854",
        "renounceRole(bytes32,address)": "36568abe",
        "revokeRole(bytes32,address)": "d547741f",
        "setSlippage(uint32)": "f2674f22",
        "setWallet(address)": "deaa59df",
        "slippage()": "3e032a3b",
        "supportsInterface(bytes4)": "01ffc9a7",
        "withdraw(address,address,uint256)": "d9caed12"
    },
    "gasEstimates": {
        "creation": {
            "codeDepositCost": "1239600",
            "executionCost": "infinite",
            "totalCost": "infinite"
        },
        "external": {
            "DAI()": "2425",
            "DEFAULT_ADMIN_ROLE()": "262",
            "USDC()": "2360",
            "USDT()": "2426",
            "Wallet()": "2383",
            "curvePool()": "2427",
            "deposit(address,uint256,uint256)": "infinite",
            "getAdapterAmount()": "infinite",
            "getRoleAdmin(bytes32)": "2470",
            "grantRole(bytes32,address)": "infinite",
            "hasRole(bytes32,address)": "2696",
            "renounceRole(bytes32,address)": "29062",
            "revokeRole(bytes32,address)": "infinite",
            "setSlippage(uint32)": "infinite",
            "setWallet(address)": "infinite",
            "slippage()": "2384",
            "supportsInterface(bytes4)": "450",
            "withdraw(address,address,uint256)": "infinite"
        }
    }
}